:020000040800F2
:100000000000012009000008DFF81400016841F435
:100010007001016072B60348804703480047000042
:1000200088ED00E0E15900082D000008DFF80CD051
:1000300000F096FD00480047C98E0008000001202E
:1000400072B634483449026841EA0201016033481B
:100050004FF00101016032484168016001688A88FF
:100060004FF0100342EA03028A80D1F800C00CF17D
:10007000240C0CF1040CBCE8FF008CF309884FF051
:10008000020C8CF31488AE4662B63047EFF3108052
:1000900072B67047EFF3108062B6704780F3108835
:1000A000704720484FF0805101607047EFF3108C8B
:1000B00072B61D4A126822B12DE900509047BDE882
:1000C0000050EFF309801EF0100F08BF20ED108BD9
:1000D00040F804ED20E9F01F114D4FF010082E6894
:1000E0003060B78827EA0807B78068682860878883
:1000F00047EA08078780016800F018B851F804EB58
:100100001EF0100F08BF00F016B881F309888CF3B9
:100110001088704720ED00E00000FFFFC8040020B9
:100120009004002004ED00E0CC04002030C9B1E8C8
:10013000C01FFFF7E3BFB1EC088BB1EC08CBFFF7B2
:10014000E4BF2DE9F05F0546002092469B468846B5
:100150000646814640241BE0284641464746224643
:1001600000F006FC53465A46C01A914110D311467E
:100170001846224600F019F82D1A67EB01084F4681
:1001800022460120002100F010F817EB00094E4133
:10019000201EA4F10104DFDC484631462A464346CE
:1001A00000F000B830BCBDE8C09F202A04DB203A34
:1001B00000FA02F1002070479140C2F1200320FABA
:1001C00003F319439040704700487047BC8401080E
:1001D00010B50446FFF7F8FF0068005D00F001006D
:1001E00010BDA0F16101192900D82038704710B561
:1001F000441A0346944209D28418114403E011F8CA
:10020000013D04F8013D521EF9D210BD40EA01043F
:10021000A40703D009E010C9121F10C3042AFAD2A0
:1002200003E011F8014B03F8014B521EF9D210BD47
:10023000D2B201E000F8012B491EFBD27047002228
:10024000F6E710B513460A4604461946FFF7F0FFD5
:10025000204610BD30B505462A460B4612F8010B64
:1002600013F8014B08B1A042F8D01CB1002802D00D
:100270006D1CF1E7284630BD10B5044604E00B784C
:1002800000F8013B03B1491C521EF8D2204610BDB4
:10029000421C10F8011B0029FBD1801A704710B5D1
:1002A000002200E0521C835C8C5CA34201D1002B35
:1002B000F8D1D8B2E1B2401A10BD30B504460020E2
:1002C000034600E05B1C934203D2E05CCD5C401B24
:1002D000F8D030BD30B505460020034600E05B1C79
:1002E000934205D2EC5CC85C201A01D1002CF6D1F7
:1002F00030BD00000FB400B58DB010A909900B906F
:1003000000914FF0FF300A9000200C9005480690B5
:10031000054807906A4609A80F9900F05FFB0DB0E9
:100320005DF814FBF9090008170A00082DE9FF5FC2
:100330001D464FF0FF3BD5E9014691465F464FF021
:100340000008A9697F1C01988847296A8246884766
:100350000028F6D1BAF1FF3F0CD024F4C064002E7F
:1003600019DD600614D5BAF12B0F09D0BAF12D0FA3
:100370000ED103E0584604B000F07EB844F4806427
:10038000A9697F1C01988847761E8246002E02DDEF
:10039000BAF1300F03D0B9F1000F26D032E0A969CD
:1003A000761E44F400747F1C019888478246002E14
:1003B00005DDBAF1780F06D0BAF1580F03D0B9F1C4
:1003C000000F10D01EE0B9F1000F02D0B9F1100FEC
:1003D00018D1A969761E24F400747F1C01988847FF
:1003E0008246102002E0082000E00A20814609E051
:1003F00008FB0908A969761E44F400747F1C019863
:1004000088478246002E05DD4946504600F0D2FA64
:100410000028EDDAE96901988847A00502D46FF059
:100420000100A8E7E00725D1600613D5600502D5D5
:10043000C8F1000000E0404629680A1D2A600968EA
:10044000220501D5087015E0220701D5088011E0CA
:1004500008600FE02868011D29600068210502D5A9
:1004600080F8008006E0210702D5A0F8008001E0B6
:10047000C0F8008038467EE730BCBDE8C09F2DE95B
:10048000FF5FD2E901A74FF0000891699946144631
:10049000DDF838B0464601988847054659EA0B0012
:1004A00005D009E0A169761C019888470546216AB4
:1004B000284688470028F5D1681C03D05FEACA7037
:1004C00005D015E04FF0FF3004B000F048B82068C8
:1004D000011D2160D0F800800AE05FEACA7001D1F6
:1004E00008F8015BA169761C7F1E019888470546C4
:1004F000002F1ADD681C18D0B9F1000F0DD0E817D5
:1005000005EBD060421120F01F0059F822102A1A82
:10051000012090400142E0D107E0BBF1000FDCD1A7
:10052000216A284688470028D7D0E1690198884782
:10053000BBF1000F07D1002E05DD5FEACA7002D1C2
:10054000002188F80010A068B84203DDBBF1000F5D
:1005500003D017B16FF00100B6E73046B4E730BC06
:10056000BDE8C09F2DE9FE4F804681EA0300C00F21
:100570000C46009021F0004123F00045B8EB02004A
:10058000A94105D24046214690461C460B460246EC
:1005900023F00040104347D0270DC7F30A00C3F3F0
:1005A0000A510290401A019040286BDAC3F31300FD
:1005B00040F4801B0098924620B10023D2EB030A3E
:1005C00063EB0B0B01985946C0F140025046FFF710
:1005D000ECFD06460D4650465946019A00F0D8F902
:1005E00010EB08006141002487EA115284EAE773A6
:1005F0001A4340D0009A62B3019A012A4FEA075287
:1006000015DC001B61EB02014FF0004202EA0752C9
:10061000CDE90042001C41F5801132462B4600F026
:1006200051FA03B000F045B840462146F9E7001BF7
:1006300061EB0201001C41F5801300185B4120189A
:10064000A2F5001747EB030140EAD570B6196D41DA
:1006500011E06D084FEA360645EAC0754FEA0752C9
:10066000001B61EB0201001C41F5801149084FEAB3
:1006700030000019514132462B4603B000F01CB83F
:1006800000F011BA0098012240000023D0EB0202D2
:1006900063EBE073009821464FEAE074B8EB00008A
:1006A00061EB0401E9E783F000435BE781F000417F
:1006B00058E730BCBDE8C08F30BCBDE8C04FFFF785
:1006C000DFBF2DE9FE4F81EA030404F0004421F06E
:1006D000004100944FF0000B23F0004350EA010466
:1006E0005ED052EA03045BD0C3F30A54C1F30A5547
:1006F0002C44A4F2F3340194A0FB0254C1F313017F
:1007000041F48011C3F3130343F4801301FB02444B
:1007100000FB034E840A970A44EA815447EA835750
:10072000A4FB076802958D0A05FB07854FEA932C09
:1007300004FB0C542705029D4FEA065847EA16377A
:10074000B5EB08056EEB070C870E920E47EA811792
:1007500042EA8312A7FB0201B6EB0B0164EB000433
:100760002B0D43EA0C335E1844EB1C50DA4651461D
:10077000E7FB0201C5F313044FEA0B3343EA1453BA
:100780004FEA0432019C43EA0603A4F10C040294EC
:10079000009CCDE900B400F095F903B000F003B877
:1007A00000200146F9E730BCBDE8C08F2DE9F04DCF
:1007B00081EA030404F0004B21F0004514464FF099
:1007C000000A23F0004150EA050220D054EA010259
:1007D0001DD0C5F30A570246C5F31303C1F3130036
:1007E000C1F30A5640F4801543F48013A7EB0608C2
:1007F000101BD64608F2FD3873EB050002D308F152
:10080000010801E092185B41B8F1000F03DA002003
:100810000146BDE8F08D00204FF480110646844665
:100820000EE0171B73EB050705D3121B63EB0503E3
:1008300006434CEA010C49084FEA300092185B412C
:1008400050EA0107EDD152EA030012D082EA040017
:1008500083EA0501084305D0101BAB4106D20122F3
:10086000002306E000224FF0004302E06FF0010297
:1008700053101AEB06004CEB085110EB0A0041EB49
:100880000B01BDE8F04D00F00EB90EB5C10F80EAC6
:10089000E0700844CA07002140F233438DE80E009F
:1008A0000A460B4600F00EF903B000BDC1F30A5230
:1008B000C1F3130140F2FF3341F480119A4202DA8E
:1008C00000200146704740F233439A42A2F233427D
:1008D00002DC524200F04CB8FFF767BC30B5041E92
:1008E00071F1000404DB4FF00044404264EB01016D
:1008F000141E73F1000405DB1C464FF00043524206
:1009000063EB0403994208BF904230BD01F00043FD
:1009100030B421F0004150EA010206D00A0DA2F5E0
:100920006072C1F31301002A02DC30BC0020704762
:10093000440F44EAC104C100E01830BC00EBC250CF
:1009400000F07AB830B50B46014600202022012481
:1009500009E021FA02F59D4205D303FA02F5491B8D
:1009600004FA02F52844151EA2F10102F1DC30BDA3
:10097000202A04DB203A21FA02F00021704721FAF4
:1009800002F3D040C2F1200291400843194670475B
:10099000202A06DBCB17203A41FA02F043EAE07343
:1009A00006E041FA02F3D040C2F120029140084330
:1009B000194670473A2800D2303820F02002412AE8
:1009C00001D3A2F13700884201D34FF0FF307047C6
:1009D000026811441378016018467047D1600449D9
:1009E00051610449116200211161114600F0CAB839
:1009F000D1090008D1010008426842B1016811F82C
:100A0000013B23B1521EC0E9001218467047012174
:100A1000C160881E704742685AB1C368016843B913
:100A200083688B4205D0491E521CC0E90012002089
:100A300070474FF0FF3070470029A8BF7047401C37
:100A4000490008BF20F00100704710B4B0FA80FCE4
:100A500000FA0CF050EA010404BF10BC704749B121
:100A6000CCF1200421FA04F411FA0CF118BF012191
:100A700021430843A3EB0C01CB1D4FEA00614FEA71
:100A8000102042BF002010BC704700EBC350104440
:100A90000029A4BF10BC7047401C490008BF20F0CB
:100AA000010010BC704710B5141E73F1000408DA81
:100AB000401C41F1000192185B411A4301D120F022
:100AC000010010BD2DE9F04D92469B4611B1B1FADF
:100AD00081F202E0B0FA80F220329046FFF765FB27
:100AE00004460F4640EA0A0041EA0B0153465A46C3
:100AF000084313D0114653EA010019D0C8F140024F
:100B00005046FFF735FF05460E46504659464246C9
:100B1000FFF74BFB084305D0012004E0204639468F
:100B2000BDE8F08D0020054346EAE0762C433743CC
:100B30000A986305E40AA0EB08000022FD0A44EAD3
:100B400047540A3002D500200146E9E70105101993
:100B50006941DDE9084500196941BDE8F04DA2E7AA
:100B6000064C074D06E0E06840F0010394E80700FA
:100B700098471034AC42F6D3FFF75CFAC4870108FB
:100B8000F48701082DE9F34F8BB04FF0000801F115
:100B90000C000C464FF0010B46460DF1080A01907F
:100BA0006269012101989047051E2DD0252D2CD07A
:100BB000216A8847C0B16269012101989047216A82
:100BC00088470028F7D1411E62690198904700E0EC
:100BD000761CA1690B988847216A88470028F7D1BD
:100BE000E1690B988847DBE7A1690B9888470746BE
:100BF000A84201D1761CD3E7E1690B9888477F1C96
:100C000002D1B8F1000F6FD046E1002762693D467E
:100C10003946019890472A2804D162690121019838
:100C200090470125DFF8849262690121019890477D
:100C3000A0F130010A290AD24F45E5DC07EB870114
:100C400000EB4107303FDFD445F01005ECE7E90643
:100C500001D46FF000476C280AD04C2814D06828C3
:100C600015D06A280DD074281CD07A281AD01DE01F
:100C700062690121019890476C2802D045F0040573
:100C800014E045F002050DE045F020050AE0626938
:100C9000012101989047682802D045F0080505E039
:100CA00045F400656269012101989047C4E9015744
:100CB00065283DD019DC58287AD00CDC452837D07F
:100CC00004DC252826D0412831D131E046282FD018
:100CD00047282CD12CE05B2877D0612828D06328C6
:100CE0007CD0642823D15AE0D0E06F2848D008DCBB
:100CF00066281DD067281BD0692821D06E2816D100
:100D000027E0702845D0732868D0752847D0782808
:100D10000DD14DE0A1690B988847054625283FF481
:100D200069AFE1690B9888476D1C3FF46AAFB3E087
:100D300023466A466FF001000B99AFF300809EE0F6
:100D400045F040006060A80723464FF0000236D40B
:100D50003EE0E8077FF447AF2068011D216000688E
:100D6000290501D506701BE7290701D5068017E77D
:100D7000A90703D5F117C0E9006111E706600FE785
:100D800045F040006060A80723464FF0080216D4E3
:100D90001EE040F60E0125EA0100606016E045F015
:100DA00040006060A80723464FF00A0207D40FE016
:100DB00045F040006060A80708D5234610226FF078
:100DC00001000B99AFF3008059E007E023461022A1
:100DD0006FF001000B99FFF7A9FA50E04FF00009FE
:100DE0004F464B46632802D05B2806D040E0E80619
:100DF00001D40120A06001273AE062690121019835
:100E000090475E2805D14FF0010962694946019873
:100E10009047216939B900210A46534643F82120F9
:100E2000491C0829FADBB0B3216969B9C11700EB85
:100E3000D16253110AEB830122F01F02821A0120B2
:100E40000B68904003430B60626901210198904751
:100E50005D28E8D1B9F1000F09D00020514651F8C2
:100E60002020D24341F82020401C0828F7DB02ABA9
:100E7000224600976FF001000B99FFF700FB002856
:100E80000CDA401C08D1BBF1000F05D04FF0FF3049
:100E90000DB000F00DB8FFE74046F9E7E90701D1D2
:100EA00008F1010806444FF0000B79E6CCCCCC0CDD
:100EB00030BCBDE8C08F70B58C1810F8015B15F020
:100EC000070301D110F8013B2A1106D110F8012BBC
:100ED00003E010F8016B01F8016B5B1EF9D12B07E1
:100EE00005D40023521E0DD401F8013BFAE710F897
:100EF000013BCB1A921C03E013F8015B01F8015B84
:100F0000521EF9D5A142D8D3002070BD10B52DEDE9
:100F1000068B82B004F0D6FCB42000F0BCF8FF20B1
:100F2000022301AA472100900F4800F0A1FA9DF882
:100F300004409DF8050000EB04242046FFF7A5FCC3
:100F400041EC1A0B9FED090B53EC102BFFF72EFC15
:100F500041EC190BFFF7DAFC08EE100AB0EE480A74
:100F600002B0BDEC068B10BD440C0020333333338C
:100F70003333F33F70B52DED028B86B0002600248D
:100F80009FED2F0AB0EE408A2EA000680490FFF774
:100F9000BDFF2D4880ED000A1020022304AA8821FD
:100FA00000902A4800F016FB1020062302AA89218F
:100FB0000090264800F05CFA9DF808008DF81400B7
:100FC0009DF809008DF815009DF80A008DF81600AF
:100FD0009DF81620022105A804F064FB04465CB9C4
:100FE0009DF815009DF8141040EA0125284604F0EC
:100FF00037FB154880ED020A9DF80B008DF81400B0
:101000009DF80C008DF815009DF80D008DF8160068
:101010009DF81620022105A804F044FB04465CB9A3
:101020009DF815009DF8141040EA0125284604F0AB
:10103000FBFA054880ED010A06B0BDEC028B70BDDD
:1010400000000000E0000000580A0020440C0020CE
:101050000146002209B9012070470868006820F0A5
:101060000E000B6818600868006820F001000B682B
:10107000186091F8440000F01C03012098400B6CAC
:101080005860012081F8250000BF002081F824006D
:1010900000BF1046E0E770B5044600F016F90646BA
:1010A0002546681C00B16D1C00BF00F00EF9801BC6
:1010B000A842FAD370BD000078B503460022002490
:1010C0000020E5E0012696400D6805EA0604002CA4
:1010D0007DD04D68022D02D04D68122D13D1D60857
:1010E00003F1200555F826005507EE0E0F25B540F3
:1010F000A8435607F60E0D69B5402843D60803F1FC
:10110000200545F82600186856000325B540A84379
:101110000D7905F003055600B540284318604D6869
:10112000012D08D04D68022D05D04D68112D02D03B
:101130004D68122D13D1986856000325B540A84379
:101140005600CD68B5402843986058680125954001
:10115000A8430D79C5F300159540284358600D79D3
:1011600005F00305032D09D1D86A01259540A84350
:101170000D79C5F3C00595402843D862D86856005C
:101180000325B540A84356008D68B5402843D86074
:101190004D6805F08055B5F1805F78D100BF3F4DB7
:1011A0002D6E45F001053D4E356635462D6E05F038
:1011B0000105009500BF00BF4FEAB635960855F807
:1011C000260095072E0F0F25B540A84300E05EE0EE
:1011D000B3F1904F01D100251EE0314DAB4201D15A
:1011E000012519E02F4DAB4201D1022514E02E4D0F
:1011F000AB4201D103250FE02C4DAB4201D10425B8
:101200000AE02B4DAB4201D1052505E0294DAB424B
:1012100001D1062500E007259607360FB540284383
:10122000254D960845F82600244D2868A0434D68B2
:1012300005F48035B5F5803F00D120431F4D28606F
:101240002D1D2868A0434D6805F40035B5F5003F15
:1012500000D12043194D2D1D28602D1D2868A04365
:101260004D6805F48015B5F5801F00D12043134D5E
:10127000083528602D1D2868A0434D6805F4001529
:10128000B5F5001F00D120430C4D0C352860521CD1
:101290000D68D540002D7FF415AF78BD00100240D9
:1012A0000004004800080048000C004800100048F6
:1012B00000140048001800480800014000040140E4
:1012C0000AB1816100E08162704710B503F0B4FD9E
:1012D00010BD024692F8410020282DD100BF92F89F
:1012E0004000012801D102207047012082F840000F
:1012F00000BF242082F841001068006820F001003F
:10130000136818601068006820F480501368186033
:10131000106800680843136818601068006840F09F
:10132000010013681860202082F8410000BF0020EF
:1013300082F8400000BFD7E70220D5E710B502468B
:101340000B4692F8410020282AD100BF92F84000B5
:10135000012801D1022010BD012082F8400000BF09
:10136000242082F841001068006820F00100146811
:1013700020601068016821F4706141EA032110685F
:1013800001601068006840F00100146820602020AF
:1013900082F8410000BF002082F8400000BFDAE779
:1013A0000220D8E710B5044624B94FF400706064F9
:1013B000012010BD94F8410028B9002084F84000B5
:1013C000204600F0B7F9242084F841002068006826
:1013D00020F0010021680860606820F070602168DA
:1013E00008612068806820F4004021688860E06817
:1013F000012805D1A06840F400402168886004E01D
:10140000A06840F4044021688860E068022802D1A6
:1014100080022168486020684068144908432168B8
:1014200048602068C06820F400402168C860D4E9A2
:1014300004010843A16940EA01202168C860D4E999
:1014400007010843216808602068006840F0010037
:101450002168086000206064202084F8410000209A
:10146000206384F8420000BFA3E700000080000270
:101470002DE9F8430446894616461F46DDF82080CC
:1014800094F84100202873D100BF94F8400001284F
:1014900002D10220BDE8F883012084F8400000BF9B
:1014A000FFF713FF054619230122D10320460095BB
:1014B00001F0F4FE08B10120ECE7222084F841009D
:1014C000102084F8420000206064666267856063D3
:1014D000608DFF280CD9FF2020853C48009094F8AF
:1014E00028204FF080734946204601F0BDFE0BE0F6
:1014F000608D20853548009094F828204FF00073C7
:101500004946204601F0B0FE3FE02A4641462046CB
:1015100001F0F4FE08B10120BCE72068406AC1B2C6
:10152000626A501C60621170208D401E2085608DA3
:10153000401E6085608D40B3208D30BB4346002245
:1015400080212046009501F0A9FE08B10120A1E705
:10155000608DFF280DD9FF2020850020009094F891
:1015600028204FF080734946204601F07DFE0CE0B4
:101570002AE0608D20850020009094F828204FF00C
:1015800000734946204601F06FFE608D0028BCD1F3
:101590002A464146204601F001FF08B1012079E7C3
:1015A00020202168C86120684068094908402168F6
:1015B0004860202084F84100002084F8420000BFE9
:1015C00084F8400000BF65E7022063E70024008044
:1015D00000E800FE2DE9F8430446894616461F46FA
:1015E000DDF8208094F84100202870D100BF94F8E5
:1015F0004000012802D10220BDE8F883012084F8D0
:10160000400000BFFFF761FE054619230122D10308
:101610002046009501F042FE08B10120ECE72120B0
:1016200084F84100102084F8420000206064666263
:1016300067856063608DFF280BD9FF2020853B48BC
:10164000009094F82820C3024946204601F00CFE81
:101650000AE0608D20853548009094F82820030327
:101660004946204601F000FE3EE02A46414620461B
:1016700001F0BFFE08B10120BEE7616A481C60624C
:10168000087821688862608D401E6085208D401E2C
:101690002085608D40B3208D30BB434600228021E1
:1016A0002046009501F0FAFD08B10120A4E7608D05
:1016B000FF280DD9FF2020850020009094F82820D5
:1016C0004FF080734946204601F0CEFD0CE02AE041
:1016D000608D20850020009094F828204FF0007342
:1016E0004946204601F0C0FD608D0028BDD12A4644
:1016F0004146204601F052FE08B101207CE720203F
:101700002168C8612068406809490840216848602C
:10171000202084F84100002084F8420000BF84F8B3
:10172000400000BF68E7022066E70000002000805C
:1017300000E800FE10B586B00446394920688842AA
:101740001BD1C020019012200290012003900320A1
:1017500004900420059001A93248FFF7ADFC00BFBA
:101760003148806D40F400102F4988650846806D2F
:1017700000F40010009000BF4FE02C492068884220
:101780001CD14FF488400190122002900120039058
:10179000032004900420059001A92248FFF78CFC47
:1017A00000BF2148806D40F480001F4988650846CD
:1017B000806D00F48000009000BF2EE01C4920687E
:1017C00088422AD1802001901220029001200390AB
:1017D000032004900420059001A94FF09040FFF7EA
:1017E0006BFC102001901220029001200390032036
:1017F00004900420059001A90A48FFF75DFC00BF92
:101800000948806D40F40000074988650846806DEE
:1018100000F40000009000BF00BF06B010BD000043
:1018200000540040000400480010024000580040EE
:10183000005C004010B5032000F06EF8002000F0BE
:1018400005F800F017F8002010BD000070B5044640
:10185000074800684FF47A71B0FBF1F5284601F0B3
:10186000BFFA00222146501E00F015F8002070BD7E
:1018700000040020704701460846002809DB00F0FC
:101880001F0301229A4043099B0003F1E023C3F8A0
:10189000002100BF70472DE9F05F80460D461646D7
:1018A000002704F051FC074639462A46334601F02A
:1018B0000700C0F1070ABAF1040F02D94FF0040A79
:1018C00001E0C0F1070AD14600F1040ABAF1070F9E
:1018D00002D24FF0000A01E0A0F1030AD4464FF013
:1018E000010A0AFA09FAAAF1010A0AEA020A0AFA3C
:1018F0000CFA4FF0010B0BFA0CFBABF1010B0BEAEE
:10190000030B4AEA0B042146404604F025FC00F094
:1019100000B830BCBDE8C09F00BF00F00702064B16
:1019200019684FF6FF031940044B0B4343EA0221A9
:10193000014B196000BF70470CED00E00000FA0594
:1019400000BF00BF00BF00BF00BFBFF34F8F00BF8D
:1019500000BF00BF0948006800F4E0600849084380
:10196000001D0649086000BF00BF00BFBFF34F8FD6
:1019700000BF00BF00BF00BF00BFFDE70CED00E0EF
:101980000000FA0502460021B2F5007F29D11D486A
:10199000006800F4C060B0F5007F31D019480068DD
:1019A00020F4C06040F40070164B186016480068C0
:1019B000164BB0FBF3F0322300FB03F100E0491EAD
:1019C00031B11048406900F48060B0F5806FF6D006
:1019D0000C48406900F48060B0F5806F10D103209E
:1019E00070470848006800F4C060B0F5806F07D009
:1019F0000448006820F4C06040F48060014B186027
:101A00000020EDE7007000400004002040420F007D
:101A10000248006800F4C060704700000070004099
:101A20000348006840F48070014908607047000076
:101A300000700040F8B504460025FFF746FC064656
:101A400094F8390000F0020000283ED000BF0020CA
:101A500084F8380000BF2068006800F0040070B10E
:101A60002068006820F0040021680860606BFFF7C0
:101A7000EFFA05461DB1E06B40F00400E06320681A
:101A8000006840F0020021680860206C33460122A3
:101A900002210090204603F0D9FB05465DB90220E3
:101AA0002168C860206C3346002220210090204627
:101AB00003F0CCFB054645B92068406920F0406042
:101AC00021684861012084F839002846F8BD2DE9D5
:101AD000F84304460D461746FFF7F7FB8046A86912
:101AE00000B100BFE86900B100BF286A00B100BFC3
:101AF00000BF94F83800012802D10220BDE8F88325
:101B0000012084F8380000BF94F83900012828D15A
:101B10000020E063022084F839004346002220219F
:101B20002046009703F092FB0646DEB900222946C4
:101B3000204603F049FA686A78B943460122022137
:101B40002046009703F082FB06465EB9022021681A
:101B5000C860012084F8390004E0012084F83900CD
:101B600000E0022600BF002084F8380000BF3046A5
:101B7000C4E70000F8B50446FFF7A7FB06460CB91A
:101B80000120F8BD00BF94F83800012801D10220DF
:101B9000F7E7012084F8380000BF94F8390050B905
:101BA000002084F83800204600F048F841F28831DF
:101BB000204600F0E8F82068006820F47061A06812
:101BC000401E41EA002021680860206C3346002254
:101BD00020210090204603F039FB054615BB2179F2
:101BE000E06840EA016021680968124A1140084330
:101BF00021680860208A616941EA0040A1690843C0
:101C0000216849680C4A11400843216848602068EF
:101C1000006840F00100216808600020E0630120B6
:101C200084F8390000BF002084F8380000BF28463F
:101C3000A7E70000EFFFFF00FEF8E0FF10B586B059
:101C400004461149206888421CD100BF0F48006D2E
:101C500040F480700D4908650846006D00F48070FE
:101C6000009000BF00BF40F60340019002200290A8
:101C700000200390032004900A20059001A9044845
:101C8000FFF71AFA06B010BD001000A000100240C5
:101C9000000400482DE9F84F04460E46174600257B
:101CA000FFF713FB80462068D0F81890206800F1F9
:101CB000200A00BF94F83800012802D1022000F069
:101CC0005FB8012084F8380000BF94F8390001287B
:101CD0004ED10020E063002E44D0222084F8390049
:101CE00020680069401C206320680069401CE06295
:101CF000A6622068406920F0406040F08060216862
:101D000048612068C0F8189013E04346012206217C
:101D10002046009703F09AFA054605B10CE09AF8C0
:101D20000000A16A0870A06A401CA062206B401EDF
:101D30002063206B0028E8D100BF7DB94346012213
:101D400002212046009703F081FA054635B90220AA
:101D50002168C8602046FFF76DFE0546012084F823
:101D6000390006E0E06B40F00800E063012500E088
:101D7000022500BF002084F8380000BF28469EE7F7
:101D800018BCBDE8E08F016470472DE9F8430446B4
:101D90000E4617460025FFF798FA8046206800F1A6
:101DA000200900BF94F83800012802D10220BDE8C4
:101DB000F883012084F8380000BF94F83900012826
:101DC00049D10020E063002E3FD0122084F8390072
:101DD00020680069401C606220680069401C206225
:101DE000E6612068406920F040602168486113E0A6
:101DF0004346012204212046009703F027FA0546B6
:101E000005B10CE0E069007889F80000E069401C49
:101E1000E061606A401E6062606A0028E8D100BF2D
:101E20007DB94346012202212046009703F00EFAB5
:101E3000054635B902202168C8602046FFF7FAFD43
:101E40000546012084F8390006E0E06B40F0080008
:101E5000E063012500E0022500BF002084F838007F
:101E600000BF2846A3E700002DE9F84304460026FA
:101E700000270025A846208800F40060B0F5006F18
:101E800030D1606E80B1B0F5800F13D0B0F5000F87
:101E900003D0B0F5400F15D113E0FA48C06840F404
:101EA0008030F849C8600FE00021201D03F0F4F9EC
:101EB000054609E0002104F1200003F0B3FA0546CD
:101EC00002E001E0012500BF00BF55B9ED488830B0
:101ED000006820F44000616E0843EA49C1F88800B8
:101EE00000E0A846208800F48050B0F5805F30D133
:101EF000A06E80B1B0F1807F13D0B0F1007F03D02D
:101F0000B0F1407F15D113E0DE48C06840F4803066
:101F1000DC49C8600FE00021201D03F0BDF9054633
:101F200009E0002104F1200003F07CFA054602E0FC
:101F300001E0012500BF00BF55B9D24888300068D4
:101F400020F04070A16E0843CE49C1F8880000E03F
:101F5000A846206800F40030B0F5003F76D14FF07D
:101F60000009C848806D00F0805078B900BFC548AE
:101F7000806D40F08050C34988650846806D00F050
:101F80008050009000BF00BF4FF00109BE480068BC
:101F900040F48070BC490860FFF797F9074606E0F7
:101FA000FFF793F9C01B022801D9032505E0B648C5
:101FB000006800F480700028F2D000BF85BBB148F3
:101FC0009030006800F44076D6B1D4F88400B04276
:101FD00016D0AC489030006820F44076A948D0F87C
:101FE000900040F48030A749C1F890000846D0F82E
:101FF000900020F48030C1F890000846C0F890604E
:1020000006F00100A8B1FFF760F9074609E0FFF705
:102010005CF9C01B41F28831884202D9032507E0F0
:1020200017E098489030006800F002000028EED0D9
:1020300000BF65B993489030006820F44070D4F830
:10204000841008438F49C1F8900003E00CE0A846D3
:1020500000E0A846B9F1010F05D18A48806D20F053
:1020600080508849886500BF207800F0010048B1A1
:1020700084488830006820F00300A16B0843814940
:10208000C1F88800207800F00200022809D17D48BC
:102090008830006820F00C00E16B08437949C1F8F2
:1020A0008800207800F00400042809D175488830A1
:1020B000006820F03000216C08437249C1F88800A4
:1020C000207800F00800082809D16E4888300068A0
:1020D00020F0C000616C08436A49C1F8880020788C
:1020E00000F01000102809D166488830006820F4FC
:1020F0004070A16C08436349C1F88800207800F063
:102100002000202809D15F488830006820F4406012
:10211000E16C08435B49C1F88800208800F4007036
:10212000B0F5007F09D157488830006820F440207E
:10213000E16D08435349C1F88800208800F48060AD
:10214000B0F5806F09D14F488830006820F4401006
:10215000216E08434B49C1F88800207800F0400008
:10216000402809D147488830006820F44050216D4C
:1021700008434449C1F88800207800F08000802896
:1021800009D140488830006820F44040616D084320
:102190003C49C1F88800208800F48070B0F5807F49
:1021A00009D138488830006820F44030A16D0843D8
:1021B0003449C1F88800208800F40050B0F5005F71
:1021C0001FD130488830006820F04060E16E08433D
:1021D0002C4988310860E06EB0F1006F06D12948C3
:1021E000C06840F480102749C8600AE0E06EB0F192
:1021F000806F06D10121201D03F04EF8054605B180
:10220000A846206800F40020B0F5002F1FD11D481B
:102210008830006820F04060216F084319498831F8
:102220000860206FB0F1006F06D11648C06840F416
:1022300080101449C8600AE0206FB0F1806F06D1A9
:102240000121201D03F028F8054605B1A8462068A5
:1022500000F48020B0F5802F23D10A488830006830
:1022600020F04060616F0843064988310860606F64
:10227000B0F1006F0AD10348C06840F480100149F2
:10228000C8600EE00010024000700040606FB0F1C6
:10229000806F06D10121201D02F0FEFF054605B129
:1022A000A846208800F48040B0F5804F1FD1224816
:1022B000006820F04050A16F08431F490860A06FDC
:1022C000B0F1805F07D10221201D02F0E5FF054635
:1022D0006DB1A8460BE0A06FB0F1005F07D10221FD
:1022E00004F1200003F09EF8054605B1A8462088B9
:1022F00000F40040B0F5004F09D10F48006820F00D
:102300008040E16F08430C498839C1F88800206893
:1023100000F48030B0F5803F0AD10748006820F013
:102320000040D4F88010084303498839C1F8880078
:102330004046BDE8F88300008810024070B50446AE
:102340000D460CB9012070BD5348006800F007002D
:10235000A8420ED25048006820F0070028434E499A
:1023600008600846006800F00700A84201D001207C
:10237000E9E7207800F00100002840D060680328D9
:1023800006D14648006800F00070D8B90120DAE7AD
:102390006068022806D14148006800F4003088B91E
:1023A0000120D0E7606830B93C48006800F00200C6
:1023B00040B90120C7E73948006800F4806008B9D7
:1023C0000120C0E73548806820F0030061680843B9
:1023D00032498860FEF779FF064608E0FEF775FF90
:1023E000801B41F28831884201D90320ABE72B489A
:1023F000806800F00C006168B0EB810FEED12078AE
:1024000000F00200022807D12448806820F0F00084
:10241000A1680843214988601F48006800F0070050
:10242000A8420ED91C48006820F0070028431A492A
:1024300008600846006800F00700A84201D00120AB
:1024400081E7207800F00400042807D11348806851
:1024500020F4E060E168084310498860207800F0CB
:102460000800082808D10D48806820F460502169D0
:1024700040EAC1000949886000F03CF807498968D2
:10248000C1F30311064A515CC840064908600020A8
:10249000FFF7DCF9002056E7002002400010024060
:1024A000202D01080004002001480068704700004A
:1024B0000004002000B5FFF7F7FF04498968C1F365
:1024C0000221034A515CC84000BD000000100240D8
:1024D000302D010800B5FFF7E7FF04498968C1F313
:1024E000C221034A515CC84000BD000000100240F8
:1024F000302D0108F0B5002100230024022502221E
:1025000000203B4EB66806F00C065EB1384EB66849
:1025100006F00C060C2E1ED1354EF66806F00306AA
:10252000012E18D1324E366806F008062EB9304E0C
:1025300094363668C6F3032103E02D4E3668C6F3A1
:1025400003112C4E56F82110294EB66806F00C06E1
:1025500086B908460EE0264EB66806F00C06042E34
:1025600001D1254806E0224EB66806F00C06082E7A
:1025700000D122481E4EB66806F00C060C2E36D14D
:102580001B4EF66806F00304194EF668C6F30216F1
:10259000721C012C19D0022C02D0032C14D109E09A
:1025A000154EB6FBF2F6124FFF68C7F3062706FB7F
:1025B00007F313E0114EB6FBF2F60D4FFF68C7F3B9
:1025C000062706FB07F309E000BFB1FBF2F6084F50
:1025D000FF68C7F3062706FB07F300BF00BF044EE2
:1025E000F668C6F34166761C7500B3FBF5F0F0BDE6
:1025F00000100240382D01080024F40000127A0077
:10260000F8B504460CB90120F8BD207800F01000A0
:1026100010286ED1F848806800F00C00002869D1BD
:10262000F548006800F0020018B1A06908B901205F
:10263000EAE7F148216A006800F0080020B1EE489E
:10264000006800F0F00005E0EB489430006800F40A
:102650007060000981421FD9206A02F095FF08B11D
:102660000120D1E700BFE448006840F00800E249DB
:1026700008600846006820F0F000216A0843DE493F
:10268000086000BF0846406820F47F40E16940EAE6
:102690000120D94948601EE000BFD748006840F0DB
:1026A0000800D54908600846006820F0F000216A5B
:1026B0000843D149086000BF0846406820F47F40C5
:1026C000E16940EA0120CC494860206A02F05CFFE1
:1026D00008B1012098E7FFF70DFFC7498968C1F3EA
:1026E0000311C64A515CC840C54908600020FFF785
:1026F000ADF84AE0A06980B3BF48006840F001002F
:10270000BD490860FEF7E1FD054606E0FEF7DDFD88
:10271000401B022801D9032076E7B748006800F083
:1027200002000028F2D000BFB348006840F0080063
:10273000B14908600846006820F0F000216A0843AB
:10274000AD49086000BF0846406820F47F40E16959
:1027500040EA0120A849486017E0FFE7A648006862
:1027600020F00100A4490860FEF7AFFD054606E031
:10277000FEF7ABFD401B022801D9032044E79E4829
:10278000006800F002000028F2D1207800F001007B
:10279000002868D09848806800F00C0008280BD00A
:1027A0009548806800F00C000C280ED19248C06853
:1027B00000F00300032808D18F48006800F40030BF
:1027C00088B3606878BB01201EE700BF6068B0F581
:1027D000803F06D18848006840F480308649086010
:1027E0001AE06068B0F5A02F0BD18348006840F470
:1027F0008020814908600846006840F48030086005
:102800000AE07D48006820F480307B490860084673
:10281000006820F48020086000BF606890B1FEF777
:1028200054FD054607E01EE0FEF74FFD401B6428FF
:1028300001D90320E8E67048006800F40030002861
:10284000F2D010E0FEF741FD054606E0FEF73DFD43
:10285000401B642801D90320D6E66748006800F4CD
:1028600000300028F2D1207800F0020002285ED16A
:102870006148806800F00C0004280BD05E48806836
:1028800000F00C000C2818D15B48C06800F0030071
:10289000022812D15848006800F4806018B1E0683E
:1028A00008B90120B0E65448406820F0F850217C77
:1028B00040EA01605049486039E0E06800B34E48A2
:1028C000006840F480704C490860FEF7FEFC054645
:1028D00006E0FEF7FAFC401B022801D9032093E62C
:1028E0004548006800F480600028F2D04248406803
:1028F00020F0F850217C40EA01603F49486016E032
:102900003D48006820F480703B490860FEF7DDFC1C
:10291000054606E0FEF7D9FC401B022801D903203A
:1029200072E63548006800F480600028F2D1207813
:1029300000F00800082836D16069D0B12E489430E4
:10294000006840F001002C49C1F89400FEF7BDFC7E
:10295000054606E0FEF7B9FC401B022801D903201A
:1029600052E625489430006800F002000028F1D0BB
:1029700019E021489430006820F001001E49C1F898
:102980009400FEF7A2FC054606E0FEF79EFC401B05
:10299000022801D9032037E617489430006800F078
:1029A00002000028F1D1207800F0040004286ED144
:1029B00000261148806D00F0805070B900BF0E48AD
:1029C000806D40F080500C4988650846806D00F0AD
:1029D0008050009000BF00BF01260A48006800F444
:1029E0008070F0B90748006840F4807005490860BD
:1029F000FEF76BFC05460EE000100240202D01089A
:102A00000004002000700040FEF75FFC401B02281D
:102A100001D90320F8E58148006800F4807000289F
:102A2000F2D000BFA068012808D17D48006840F0BE
:102A300001007B499039C1F8900021E0A068052889
:102A40000FD17748006840F0040075499039C1F80B
:102A500090000846D0F8900040F00100C1F89000C6
:102A60000EE06F48006820F001006D499039C1F810
:102A700090000846D0F8900020F00400C1F89000C3
:102A800000BFA068A0B1FEF720FC054609E02DE0DC
:102A9000FEF71BFC401B41F28831884201D903201C
:102AA000B2E55F48006800F002000028F0D012E0B4
:102AB000FEF70BFC054608E0FEF707FC401B41F261
:102AC0008831884201D903209EE55548006800F00E
:102AD00002000028F0D1012E07D151489038806DB6
:102AE00020F080504E499039886500BFA06AE8B355
:102AF0004B489038806800F00C000C2879D0A06A10
:102B0000022853D146489038006820F0807044492C
:102B100090390860FEF7D9FB054606E0FEF7D5FBC5
:102B2000401B022801D903206EE53D48903800681B
:102B300000F000700028F1D1206B401E0101606B95
:102B400041EA0021A06B000941EA4040E16A0843E4
:102B5000A18F0122C2EB510140EA41514020005DAA
:102B6000C2EB500041EA40602D4900E053E090394B
:102B7000C8600846006840F0807008600846C06879
:102B800040F08070C860FEF7A0FB054606E0FEF747
:102B90009CFB401B022801D9032035E520489038D2
:102BA000006800F000700028F1D034E01C48903834
:102BB000006820F080701A49903908600846006863
:102BC00000F0006048B90846006800F0005020B9E5
:102BD0000846C06820F00300C86011489038C068FB
:102BE000104908400E499039C860FEF76EFB054653
:102BF00007E00EE0FEF769FB401B022801D9032025
:102C000002E507489038006800F000700028F1D114
:102C100001E00120F8E40020F6E40000007000402C
:102C200090100240FFFFEEFE2DE9F84304460D46EA
:102C300017461E464FF00008C14600BF94F85C00DE
:102C4000012802D10220BDE8F883012084F85C004D
:102C500000BFFEF73AFB804694F85D00012802D0E1
:102C60004FF00209B2E005B117B94FF00109ADE02C
:102C7000032084F85D0000202066A563A787E7870E
:102C80002064A4F84400A4F846002065E064A0682D
:102C9000B0F5004F05D12068006840F480402168FD
:102CA00008602068006800F04000402805D02068D7
:102CB000006840F0400021680860E068B0F5E06F0F
:102CC0002AD9606810B1E08F012806D128882168D0
:102CD000C860AD1CE08F401EE08719E02068806866
:102CE00000F00200022807D128882168C860AD1CC6
:102CF000E08F401EE0870BE03EB1701C40B1FEF754
:102D0000E4FAA0EB0800B04202D34FF003095DE003
:102D1000E08F0028E2D13FE0606810B1E08F012829
:102D200011D1E08F012807D928882168C860AD1C1F
:102D3000E08F801EE08706E015F8010B216808731C
:102D4000E08F401EE08724E02068806800F00200E9
:102D5000022812D1E08F012807D928882168C8608D
:102D6000AD1CE08F801EE08713E015F8010B216891
:102D70000873E08F401EE0870BE03EB1701C40B14D
:102D8000FEF7A3FAA0EB0800B04202D34FF003090C
:102D90001CE0E08F0028D7D142463146204602F0A1
:102DA000B3FC08B120202066A06850B900BF002005
:102DB00000902068C068009020688068009000BF84
:102DC00000BF206E08B14FF0010900BF012084F858
:102DD0005D0000BF002084F85C0000BF484632E779
:102DE00070B504462546681EB0F1807F01D30120EE
:102DF0000FE0681E4FF0E02148610F214FF0FF30D7
:102E000003F0AAF900204FF0E02188610720086153
:102E1000002070BD10B504460CB9012010BDA0699A
:102E200000B100E000BF94F8710028B9002084F8D8
:102E30007000204600F02AF8242084F871002068F1
:102E4000006820F0010021680860204602F0A8FE1A
:102E5000012800D1E2E7606A10B1204602F0EAFDE5
:102E60002068406820F490402168486020688068AD
:102E700020F02A00216888602068006840F0010086
:102E800021680860204602F051FEC7E710B586B001
:102E9000044654492068884224D100BF5248C06D7E
:102EA00040F001005049C8650846C06D00F00100BF
:102EB000009000BF00BF032001900220029000207C
:102EC0000390032004900820059001A94748FEF7CD
:102ED000F3F8002211464620FEF7DDFC4620FEF7FF
:102EE000CAFC7CE042492068884226D100BF3E48A7
:102EF000006E40F480403C4908660846006E00F4CD
:102F00008040009000BF00BF4FF4C06001900220DD
:102F1000029000200390032004900720059001A94F
:102F20004FF09040FEF7C8F8002211462520FEF72A
:102F3000B2FC2520FEF79FFC51E02E492068884214
:102F400025D100BF2848806D40F4003026498865AF
:102F50000846806D00F40030009000BF00BF0C20D8
:102F6000019002200290002003900320049007208B
:102F7000059001A94FF09040FEF79EF800221146FF
:102F80002620FEF788FC2620FEF775FC27E01A496C
:102F90002068884223D100BF1348806D40F4802010
:102FA000114988650846806D00F48020009000BFBC
:102FB00000BF3020019002200290002003900320E7
:102FC00004900720059001A90848FEF775F8002233
:102FD00011462720FEF75FFC2720FEF74CFC06B0C9
:102FE00010BD0000008000400010024000080048B2
:102FF0000038014000440040004800402DE9F843FB
:1030000004460D4616461F464FF0000994F871001D
:10301000202855D105B116B90120BDE8F88300BFBD
:1030200094F87000012801D10220F6E7012084F80D
:10303000700000BF00206067212084F87100FEF757
:1030400044F98146A4F85060A4F8526021E04B4650
:10305000002280212046009702F0EBFF08B10320F8
:10306000DBE7A068B0F5805F0AD1206940B9A846C7
:10307000B8F80000C0F3080021680885AD1C03E023
:1030800015F8010B21680885B4F85200401EA4F819
:103090005200B4F852000028D9D14B4600224021FA
:1030A0002046009702F0C5FF08B10320B5E72020B5
:1030B00084F8710000BF002084F8700000BFACE706
:1030C0000220AAE710B5FEF7B5FB02F009FC01F0FB
:1030D000B9FE01F041FF0248006805F0AFF910BDEC
:1030E00000040020F0B503460D46164600210022DC
:1030F000002413B1002E00DD15B94FF0FF30F0BDF4
:1031000000211DE05A5C392A02DCA2F1300001E006
:10311000A2F13700C2B2481C1C5C392C02D8A4F1C1
:10312000300001E0A4F137000446274662F31F1780
:10313000084601EBD07C4FEA6C0C05F80C70891C3A
:10314000B142DFDB0020DAE72DE9F0470746884689
:103150009146002424E0385DFDF743F8C5B2611CB8
:10316000785CFDF73EF8C6B2392D03DDA5F13700D6
:10317000C5B202E0A5F13000C5B2392E03DDA6F1DB
:103180003700C6B202E0A6F13000C6B246EA051129
:10319000204604EBD072521008F80210A01C04B2B2
:1031A0004C45D8DBBDE8F08701688969C1F340016F
:1031B00011B10021026891620168896901F0010181
:1031C00029B90168896941F001010268916170477C
:1031D00070B504460D46164620688069C0F300109D
:1031E00000283DD017E0681CA8B1FEF76EF8801BE0
:1031F000A84200D87DB9606C40F0200060642020B7
:1032000084F84100002084F8420000BF84F84000A8
:1032100000BF012070BD20688069C0F34010002805
:10322000E1D010202168C86120202168C8612046B3
:10323000FFF7BAFF206840680A49084021684860E3
:10324000606C40F004006064202084F8410000209D
:1032500084F8420000BF84F8400000BF0120D9E795
:103260000020D7E700E800FEF0B5059C05686D6812
:103270004FF4806606EA545666F0FC2646F4C046D3
:10328000B543C1F309064FF47F0707EA02473E43FF
:103290001E432643354306687560F0BD2DE9F041B5
:1032A00004460E4617461D46DDF8188019E0681CD6
:1032B000B8B1FEF70AF8A0EB0800A84200D885B91B
:1032C000606C40F020006064202084F84100002001
:1032D00084F8420000BF84F8400000BF0120BDE830
:1032E000F081206880693040B04201D1012000E0C7
:1032F0000020B842DBD00020F1E7000070B50446A2
:103300000D46164640E0324629462046FFF760FF4C
:1033100008B1012070BD20688069C0F34010F8B189
:1033200020688069C0F3800018B1208D08B10020AA
:10333000F0E720202168C8612068406816490840ED
:103340002168486000206064202084F8410000204B
:1033500084F8420000BF84F8400000BF0120D9E794
:10336000FDF7B3FF801BA84200D86DB9606C40F038
:1033700020006064202084F8410000BF002084F811
:10338000400000BF0120C5E720688069C0F38000CD
:103390000028B8D00020BDE700E800FE70B5044664
:1033A0000D4616461DE0324629462046FFF710FF1F
:1033B00008B1012070BDFDF788FF801BA84200D82E
:1033C0007DB9606C40F020006064202084F84100EA
:1033D000002084F8420000BF84F8400000BF0120B4
:1033E000E8E720688069C0F340100028DBD00020A7
:1033F000E0E770B504460D4616461FE03246294602
:103400002046FFF7E5FE08B1012070BD681CA8B199
:10341000FDF75BFF801BA84200D87DB9606C40F0CF
:1034200020006064202084F84100002084F84200DD
:1034300000BF84F8400000BF0120E6E720688069F3
:10344000C0F340000028D9D00020DEE71CB50120E1
:103450000190FF20012301AA462100900148FEF7B8
:10346000B9F81CBD440C002010B501F03BFDFFF77E
:10347000EDFF00F053F800F029F800F001F810BD5E
:1034800000B587B000BF1048C06C40F001000E4985
:10349000C8640846C06C00F00100019000BF00BF86
:1034A000002201214FF09040FDF70AFF0120029019
:1034B000039000200490059002A94FF09040FDF782
:1034C000FBFD07B000BD00000010024000B587B052
:1034D00000BF1048C06C40F002000E49C8640846A6
:1034E000C06C00F00200019000BF00BF00228915EF
:1034F0000948FDF7E5FE4FF480700290012003902B
:1035000000200490059002A90348FDF7D5FD07B0FF
:1035100000BD000000100240000400481CB506A0D9
:10352000006801901020022301AA8821009003481E
:10353000FEF750F81CBD000022360000440C0020AD
:103540002DE9F04104460D4616461F462A2000F09C
:103550009DF9201200F0A8F9E0B200F0A5F93012B0
:1035600000F0A2F9F0B200F09FF92B2000F08EF9E4
:10357000281200F099F9E8B200F096F9381200F03C
:1035800093F9F8B200F090F92C2000F07FF9BDE833
:10359000F0810000F8B505460020009028128DF853
:1035A0000000E8B28DF80100EF231A46002108461A
:1035B000FFF7C6FF00240DE09DF800000F4901F859
:1035C00014009DF80100012101EB44010B4A505405
:1035D000601C84B2B4F5107FEEDB01224021084864
:1035E000FDF76EFE002606E04FF49061034800F000
:1035F00009F8701C86B2642EF6DBF8BD0C180020AA
:103600000008004870B504460D462946204602F0E1
:103610006DF870BD2DE9FE4F82468B4616461C465E
:10362000A6F12000C6B204EBD4714910C1F1F0013B
:10363000514503DBC4F1F001594501DA00F0F2B85D
:1036400004EBD4700AEB6000401E82B20BEB040066
:10365000401E83B2594650460094FFF771FF102C6C
:1036600001D0202C4ED12046E31704EB5373DB101E
:1036700021464FEAE47C04EB5C7C4FEAEC0CA4EBC3
:10368000CC0CBCF1000F02D04FF0010C01E04FF068
:10369000000C6344224604EBD27C4FEA6C0C03FB23
:1036A0000CF303F0FF09002529E0102C04D1574842
:1036B00000EB0610475D07E0202C04D1544800EBD6
:1036C000C610475D00E0B9E74FF0000812E007F0D0
:1036D000800018B14F480088029002E04E480088F0
:1036E0000290029800F0EEF87806070E08F101004B
:1036F00000F0FF08B8F1080FE9DB681CC5B24D45C2
:10370000D3DB80E00C2C45D12046E31704EB537348
:10371000DB1021464FEAE47C04EB5C7C4FEAEC0CC6
:10372000A4EBCC0CBCF1000F02D04FF0010C01E077
:103730004FF0000C6344224604EBD27C4FEA6C0C41
:1037400003FB0CF303F0FF09002520E006EB460025
:10375000324901EB8000475D4FF0000812E007F0AE
:10376000800018B12B480088029002E02A480088A7
:103770000290029800F0A6F87806070E08F1010002
:1037800000F0FF08B8F1060FE9DB681CC5B24D4533
:10379000DCDB38E0182C36D12001C11700EB517169
:1037A000C1F3C70900252CE006EB46001C4901EBDC
:1037B0000010475D284605EBD0714910A5EB41018B
:1037C00011B90820019001E0042001904FF0000899
:1037D00012E007F0800018B10E480088029002E065
:1037E0000D4800880290029800F06CF87806070EE9
:1037F00008F1010000F0FF0801988045E9DB681C32
:10380000C5B24D45D0DB00BF18E700006B3301089F
:103810002B4B01084005002042050020F72E01082F
:103820005B3901081EBCBDE8E08F2DE9F047044676
:103830000D4690469946DDE9086704F0FF0A08EB5B
:1038400004001FFA80F809EB05001FFA80F914E064
:10385000444502DB5446A81985B24D4500DB12E011
:103860003A78334629462046FFF7D4FE304606EB29
:10387000D07104EB61018CB27F1C38787E2802DCA9
:1038800038782028E4DA00BFBDE8F08701B50022CF
:1038900040210448FDF714FD01216846FFF7B2FE00
:1038A00008BD00000008004801B50122402104487D
:1038B000FDF706FD01216846FFF7A4FE08BD0000E4
:1038C0000008004838B504460020009020128DF80A
:1038D0000000E0B28DF80100012240210348FDF70D
:1038E000EFFC02216846FFF78DFE38BD0008004856
:1038F00002465018401E904204D95018401E4B1EDC
:1039000098437047481E22EA0000FAE72DE9F84381
:1039100005460C4616461F46DDF820800A4800681A
:1039200048B10948CDF800803B4632462146D0F8E0
:1039300000C02846E0470548844202D00020BDE888
:10394000F8830020FBE7000034050020F8C3B2A193
:103950002DE9F04704460D4691461E46089F16B9CC
:103960002548BDE8F087F02C02D32348401EF8E735
:10397000224904F1100051F820002149884202D068
:103980001D48C01CEDE7072D01DC002D02DA1A48A6
:10399000001DE6E7FCF77AFB80461A49174A04F156
:1039A000100042F82010184941F8206060B2002849
:1039B00009DB00F01F02012191404209920002F14F
:1039C000E022C2F8001100BF60B22946002804DBE3
:1039D0000A07130E0D4A135408E00A074FEA126C47
:1039E0000B4A00F00F031B1F02F803C000BF404644
:1039F000FCF754FB0020B4E701090002000000209E
:103A00002DE700080DE800080C14002000E400E099
:103A100018ED00E010B50BF0D3F92B482B490860E6
:103A20000AF030FF044654B100BF29A002F03AFB6F
:103A3000214629A002F036FB00BF204610BD0AF047
:103A400093FE0BF04BFE04464CB100BF20A002F0E9
:103A500029FB28A002F026FB00BF2046EEE70BF072
:103A6000D1FE0BF019FA04460CB12046E6E70AF045
:103A700019FF04460CB12046E0E70BF061F804465C
:103A80004CB100BF12A002F00DFB1FA002F00AFB18
:103A900000BF2046D2E70BF061FB04464CB100BFEB
:103AA0000BA002F0FFFA1DA002F0FCFA00BF2046B6
:103AB000C4E70CF01BF90AF07FFE04460CB1204667
:103AC000BCE70020BAE70000302A002038050020BB
:103AD0005B4552525D2000006F734D656D537973E5
:103AE00074656D496E6974206572726F7220256409
:103AF0000A0000006F735461736B496E697420652E
:103B000072726F720A0000006F73517565756549B6
:103B10006E6974206572726F720A00006F7353775A
:103B2000546D72496E6974206572726F720A00007A
:103B300042684A60086042681160416070474268AC
:103B40004A600860426811604160704742684A609C
:103B50000860426811604160704742684A600860CE
:103B60004268116041607047D0E900121160D0E9ED
:103B700000215160002141600160704701464868A2
:103B8000884201D1012070470020FCE701464868C7
:103B9000884201D1012070470020FCE701464868B7
:103BA000884201D1012070470020FCE701464868A7
:103BB000884201D1012070470020FCE70146486897
:103BC000884201D1012070470020FCE7406000607E
:103BD0007047406000607047406000607047406020
:103BE0000060704770B504460D4629462068FFF70F
:103BF0009FFF70BD70B504460D46002604B10DB997
:103C0000304670BD294620460BF0E4F9064626B939
:103C1000294620460AF0A2FB06463046F1E770B579
:103C200004460D4616463246294620460AF04DFC0B
:103C300070BD70B504460D46002604B10DB90120D3
:103C400070BD294620460BF015FA0646012E04D019
:103C5000294620460AF066FC0646012E01D00120C6
:103C6000EEE70020ECE700002DE9F84F04460E4691
:103C70004FF0010830480568D0F800900CB1502E84
:103C800002D8012000F076B804F0030008B101204A
:103C9000F8E7FCF7FBF9824620E0A8684719AC4238
:103CA00002D8A019A84204D8BC4215D2A019B84223
:103CB00012D300BF21A002F0F5F9A8682844A21988
:103CC0002B46214600901FA002F0ECF900BF5046A1
:103CD000FCF7E4F90120D5E7A946ED68002DDCD119
:103CE000314620460AF0C1FC8046B8F1000F04D1ED
:103CF0005046FCF7D3F90120C4E7B6F5805F0BD33B
:103D000020460BF0F4F98046B8F1000F04D150467C
:103D1000FCF7C4F90120B5E70748006810B9064868
:103D2000046001E0C9F80C400020E0605046FCF758
:103D3000B5F90020A6E70000300500205B4552528F
:103D40005D200000706F6F6C205B25702C20307838
:103D500025782920636F6E666C69637420776974B7
:103D60006820706F6F6C205B25702C203078257870
:103D7000290A000018BCBDE8E08F00002DE9F843D7
:103D8000064616B91E48BDE8F883FCF77FF9814660
:103D90001C48FFF703FF40B14846FCF77FF900BF1E
:103DA000174F7F1CDFF860801FE01648446800BF93
:103DB000D4E900010860D4E9001048600020606088
:103DC000206000BFA4F10805688001202870002051
:103DD000A882286105F10800FFF7FBFE68683060E3
:103DE0004846FCF75BF90020CDE700BF0020034602
:103DF0003A464146009005A0FFF788FD3846C2E7E5
:103E0000021D000200050020F8C3B2A16F735F75A8
:103E10006E73706563696669635F66696C650000EF
:103E20002DE9F8430746142F03D300BF1D4D1E4E46
:103E30002DE007EB47001D49096801EBC004FCF7C2
:103E400025F98046207830B94046FCF727F900BFB5
:103E5000144D154E1BE004F10800FFF79FFE08B15A
:103E6000608838B14046FCF719F900BF0D4D0835A0
:103E70000D4E0CE004F108010D48FFF760FE002034
:103E800020704046FCF70AF90020BDE8F88300BF27
:103E9000002003462A463146009006A0FFF736FD73
:103EA0002846F2E7011D0002F8C3B2A1FC0400207D
:103EB000000500206F735F756E73706563696669D6
:103EC000635F66696C6500002DE9F8430746884624
:103ED000142F0BD300BF00200346494A49490090E4
:103EE00049A0FFF713FD4648BDE8F88307EB4700FC
:103EF0004A49096801EBC004FCF7C8F881462078FC
:103F000068B94846FCF7CAF800BF002003463C4A9F
:103F10003C4900903CA0FFF7F9FC3948E4E70AF07F
:103F200071FC28B14846FCF7B9F83548001DDBE7BD
:103F30003B480568608850B96088401C60802561F6
:103F4000E888A0824846FCF7A9F80020CCE7206961
:103F5000A84207D16088401C60804846FCF79EF864
:103F60000020C1E7B8F1000F05D14846FCF796F8EC
:103F70002348C01CB8E72B48008850B1204E761D5E
:103F800000BF29A002F08EF829A002F08BF800BF34
:103F900027E0EC612069C088E988884203DDE98870
:103FA00020690BF047FC4246082104F108000BF0A1
:103FB0008DFD4846FCF772F800F0CAF9287900F048
:103FC000400060B1FCF762F88146A88820F040000C
:103FD000A8804846FCF762F8094EB61D05E00020AF
:103FE00082E74846FCF75AF800BF00BF00200346AE
:103FF00032460449009004A0FFF788FC304673E77E
:10400000011D0002F8C3B2A16F735F756E73706516
:1040100063696669635F66696C650000FC04002083
:1040200090040020980400205B4552525D2000005F
:104030002121214C4F535F4552524E4F5F4D5558F1
:104040005F50454E445F494E5F4C4F434B21212109
:104050000A0000002DE9F843064606EB4600304909
:10406000096801EBC004FCF711F88046142E01D258
:10407000207870B94046FCF711F800BF00200346D5
:10408000284A2949009029A0FFF740FC2548BDE8AF
:10409000F8832B480768608810B12069B8420DD0BA
:1040A0004046FBF7FBFF00BF002003461D4A1E49A8
:1040B00000901EA0FFF72AFC1A48E8E76088401E1F
:1040C00080B2608020B14046FBF7E8FF0020DEE7C9
:1040D0002069C088A18A884203D0A18A20690BF098
:1040E000A9FB04F10800FFF759FD98B9E068A0F1B9
:1040F0002805012060802561E888A0820020E86111
:10410000082128460BF008FD4046FBF7C7FF00F0EA
:104110001FF902E04046FBF7C1FF0020B7E70000AF
:10412000FC040020011D0002F8C3B2A16F735F758B
:104130006E73706563696669635F66696C650000CC
:10414000900400202DE9F05F0E469046DDF828909F
:1041500009F104001FFA80FAB8F1000F02D12E48CD
:1041600000F060B84FF6FB70814502DD2A4809383F
:10417000F6E716B1B9F1000F02D12748401CEFE76E
:1041800006FB0AF125480068FFF734FD074617B91A
:1041900021480A38E4E7FBF779FF83462048FFF718
:1041A00005FD50B15846FBF779FF39461B480068BA
:1041B000FFF73FFD18480838D2E71948456800BFA7
:1041C000D5E900010860D5E900104860002068606A
:1041D000286000BFA5F11C04E680A4F808A02760B1
:1041E0000120A080002020826682A081E08104F16D
:1041F0001400FFF7F1FC04F11C00FFF7EDFC04F1E3
:104200002400FFF7E9FC5846FBF748FF6089C8F82F
:1042100000000020A4E700000C0600023805002082
:104220000C05002030BCBDE8C09F00002DE9F04126
:10423000064600270A2E02D32648BDE8F081FBF788
:1042400025FF804606EB460000EBC60022490968C0
:1042500001EB8004A08810B91E4D6D1D34E004F1FF
:104260001400FFF7A3FC10B91A4DED1C2CE004F16B
:104270001C00FFF79BFC10B9164DED1C24E004F167
:104280002400FFF793FC10B9124DED1C1CE0608A6E
:10429000218A0844E188884202D00E4DAD1D13E00A
:1042A000276800202060A08004F11C010B48FFF764
:1042B0004DFC4046FBF7F2FE394609480068FFF71F
:1042C000B8FC05462846B8E74046FBF7E7FE284617
:1042D000B3E7000005060002080500200C050020D9
:1042E000380500202DE9F84381460C4615461E4648
:1042F00033462A46214648460AF022FD074617B1B2
:104300003846BDE8F8834FF000082B462246414668
:10431000484600960AF04CFCF3E72DE9FF4182B0D5
:1043200080460C461D462B4604AA214640460AF00C
:1043300027FD06461EB1304606B0BDE8F0810327D2
:1043400004AB22463946404600950AF031FCF3E7BB
:1043500010B5FBF79BFE04460AF058FB28380A49C3
:104360004860084600684968884208D007480088C5
:1043700028B92046FBF792FEFBF793FE10BD2046BE
:10438000FBF78CFE00BFF9E79004002098040020A2
:1043900070B505460C4622464FF6FF7128460AF0D6
:1043A00019FD70BD2DE9F8430746142F03D300BF54
:1043B0001B4D1C4E29E01C48006800EB0714FBF75E
:1043C00065FE8046208830B94046FBF767FE00BF97
:1043D000134D144E19E004F10800FFF7EFFB38B954
:1043E0004046FBF75BFE00BF0D4D08350D4E0CE05F
:1043F00004F108010D48FFF7B0FB00202080404683
:10440000FBF74CFE0020BDE8F88300BF0020034608
:104410002A463146009006A0FFF778FA2846F2E7D0
:1044200001070002F8C3B2A11C05002014050020FA
:104430006F735F756E73706563696669635F6669E4
:104440006C6500002DE9F84307468846142F0BD30E
:1044500000BF002003463C4A3C4900903CA0FFF7C7
:1044600055FA3948BDE8F8833E48006800EB071468
:10447000FBF70CFE8146208868B94846FBF70EFE24
:1044800000BF00200346304A3049009030A0FFF7BB
:104490003DFA2D48E6E76088002807DD6088401E69
:1044A00060804846FBF7FAFD0020DBE7B8F1000F1B
:1044B00002D1254DED1C39E00AF0A4F950B1224D8E
:1044C0002D1D00BF28A001F0EDFD29A001F0EAFD9F
:1044D00000BF2BE02F48008850B11B4D6D1D00BF61
:1044E00021A001F0DFFD2CA001F0DCFD00BF1DE0EC
:1044F00032480668B4614246082104F108000BF016
:10450000E5FA4846FBF7CAFDFFF722FF307900F0D5
:10451000400048B1FBF7BAFD8146B08820F040006A
:10452000B080094DAD1D01E000209BE74846FBF738
:10453000B5FD00BF002003462A460449009004A0B0
:10454000FFF7E4F928468DE701070002F8C3B2A19E
:104550006F735F756E73706563696669635F6669C3
:104560006C6500001C0500205B4552525D20000078
:104570002121214C4F535F4552524E4F5F53454DC1
:104580005F50454E445F494E544552522121210A05
:1045900000000000980400202121214C4F535F456A
:1045A00052524E4F5F53454D5F50454E445F494E0A
:1045B0005F4C4F434B2121210A0000009004002052
:1045C000F8B505462548006800EB0514142D01D305
:1045D0002348F8BDFBF75AFD0746208868B93846DE
:1045E000FBF75CFD00BF002003461D4A1D490090FB
:1045F0001DA0FFF78BF91A48EBE7A0886188884275
:104600000FD13846FBF74AFD00BF00200346144A8D
:10461000D21D1449009014A0FFF778F91048C01D6E
:10462000D7E704F10800FFF7C9FA70B9E068A0F114
:1046300028060020B061082130460BF06DFA38469C
:10464000FBF72CFDFFF784FE05E06088401C6080CE
:104650003846FBF723FD0020BBE700001C050020C7
:1046600001070002F8C3B2A16F735F756E737065C6
:1046700063696669635F66696C65000010B50BF07D
:1046800083FA04464CB100BF06A001F00BFD07A061
:1046900001F008FD00BF204610BDFBF7D1FC20460D
:1046A000FAE700005B4552525D2000006F735469C9
:1046B000636B5374617274206572726F720A0000CA
:1046C0002DE9F84F06460D4617469846DDE90AB92A
:1046D000DDF830A016B9274800F050B835B1012DEB
:1046E00004D0022D02D02348401CF5E717B9214819
:1046F000401EF1E7B8F1000F02D11E48801CEBE725
:10470000B9F1000F05D0B9F1010F02D019481030EE
:10471000E2E7BAF1010F05D0BAF1000F02D0154857
:104720001130D9E7FBF7B2FC00901348006828B9B4
:104730000098FBF7B3FC0F48C01CCDE70E48046897
:104740000D49206808600098FBF7A8FCA761657117
:10475000266100202060E060C4F814B084F8069060
:1047600084F807A0012020712089A8F8000000200B
:10477000B2E70000010300027804002018BCBDE885
:10478000E08F00002DE9F04705464FF000084FF696
:10479000F070854202DB4648BDE8F087FBF776FC07
:1047A00081462846E91705EB11710911A5EB0111A6
:1047B0008FB2C7EBC7003F49096801EB800420892D
:1047C000A84204D04846FBF769FC3948E4E7E079A1
:1047D00001284ED1607901284BD12089C21700EB06
:1047E00012721211A0EB0212334B53F8222042F046
:1047F00080420146C31700EB13731B11A0EB031398
:10480000DFF8B4C04CF823200A212069B0FBF1F294
:1048100001FB120068BB2089C21700EB1272121153
:10482000A0EB0212634653F8222042F000520146E8
:10483000C31700EB13731B11A0EB03134CF82320D9
:104840000A212069B0FBF1F62089C21700EB127231
:104850001211A0EB0212634653F8222066F31702EE
:104860000146C31700EB13731B11A0EB03134CF8A5
:104870002320207920B101280BD002280DD104E09B
:10488000DFF82C8008F101080CE020460AF06CFEED
:1048900000BF20460AF0B2FC04E0DFF8148008F103
:1048A000090800BF00BF4846FBF7F8FB404673E726
:1048B0000503000274040020741200202DE9F04169
:1048C000044600274FF6F070844202DB1A48BDE828
:1048D000F081FBF7DBFB80462046E11704EB11710A
:1048E0000911A4EB01118EB2C6EBC6001349096889
:1048F00001EB80052889A04204D04046FBF7CEFB9F
:104900000D48E4E7287920B1012805D002280AD112
:1049100005E0094F7F1C09E0074F083706E02846ED
:104920000AF022FE02E0044F093700BF00BF4046F4
:10493000FBF7B4FB3846CAE7050300027404002005
:104940002DE9F04105460F4600263946284600F07D
:1049500045F8064616B13046BDE8F0812868C0EB40
:10496000C00000EB40001949096801EB8004FBF727
:104970008DFB8046A08820F00200A080A08840F037
:104980000400A080E18804F1280009F0E3FF0AF0A8
:104990003DF828380E4948600E48006888B10E4836
:1049A000008870B9084600684968884209D00A48FA
:1049B000008830B94046FBF771FB0AF007FA002087
:1049C000CAE74046FBF76AFB0020C5E78C040020DD
:1049D00090040020C8040020980400202DE9F05F16
:1049E00007460C464FF000084FF0FF3A17B95448FD
:1049F00000F0B4B814B95248801FF9E7206910B923
:104A00004F48801EF4E7206810B94D48C01EEFE7FC
:104A1000A0881F2802DD4A48001FE9E7A0881F2858
:104A200006D148492068884202D04548001FDFE788
:104A30004549464A891AE068884202D940481930F7
:104A4000D6E7E06810B94FF43470E0600821E06800
:104A5000FEF74EFFE060E068B0F5987F02D238487C
:104A6000401EC5E7FBF712FB834612E0384840685A
:104A7000A0F1280536494868FFF776F805F12801C6
:104A80003448FFF755F83148E968FFF7D2F80020BD
:104A9000E8602F48FFF77AF80028E7D02D48FFF7A5
:104AA00075F828B1DFF898A00AF10A0A00BF41E0C2
:104AB00028484068A0F1280526494868FFF754F8BF
:104AC0005846FBF7EBFAD5F8108008221F48E1683A
:104AD000FFF7A5F806465EB9FBF7D8FA834605F15D
:104AE00028011C48FFF724F8DFF86CA000BF21E084
:104AF00032464046E1680BF001F98146C5F8009066
:104B0000A0682862EE60E068A8600020A861E86103
:104B10000220A880A088E880206868614FF0FF30FC
:104B2000E8630020A8642069686200202865C7F84F
:104B300000805DE75846FBF7B1FA504658E70000A1
:104B400007020002B5E7000800FC0020302A002020
:104B5000B8040020B00400200002000330BCBDE80F
:104B6000C09F000070B5044609F04CFE08B118481B
:104B700070BD1848008808B11748F9E714B900F06B
:104B800011F9F5E7FBF782FA05461449096801F1C6
:104B9000280009F0B9FE11480068808820F0040060
:104BA0000E49096888800D49086821460AF01AFDF7
:104BB0000A480068808840F0200008490968888019
:104BC0002846FBF76BFAFFF7C3FB0020D0E7000095
:104BD0000D020003980400200E0200029004002041
:104BE0002DE9F04106464FF0FF37514800688642F4
:104BF00002D15048BDE8F0814F480068864202D19A
:104C00004C480D30F6E74D480068864202D34948CB
:104C10000D38EFE7FBF73AFA8046C6EBC60000EB2B
:104C200040004749096801EB8004A58805F00100B0
:104C300018B1404F0A3F00BF74E005F0100028B1E2
:104C40004048008810B100203E49088005F004006B
:104C500040B104F1280009F057FEA08820F00400BC
:104C6000A08009E005F0080010B905F4005018B163
:104C700004F12800FEF778FF05F0600010B120462F
:104C80000AF0EAFFA08820F00200A080A08840F08F
:104C90000100A0804FF0FF30E0630020A06409F025
:104CA000B5FE283828494860207900F0100038B354
:104CB00004F128012548FEF795FF20480068C0EB65
:104CC000C00000EB40001E49096801EB80001E494E
:104CD0000860084600680661A088096888801A494B
:104CE000E0680968C8601849606A0968486201207C
:104CF000A0804046FBF7D2F90AF068F8002079E777
:104D00000120A08004F128011148FEF711FF11488D
:104D1000E168FEF78EFF0020E0604046FBF7BEF939
:104D2000002067E74046FBF7B9F9384662E7000024
:104D3000A004002014020002A40400209C0400200F
:104D40008C0400209804002090040020B804002067
:104D5000B0040020302A002070B504460F480068D7
:104D6000844201D3002070BDC4EBC40000EB4000BE
:104D70000B49096801EB8005FBF788F9064628799D
:104D800000F0010020B13046FBF788F90020EAE787
:104D90003046FBF783F9686AE5E700009C040020D1
:104DA0008C04002070B50024204800680069204968
:104DB0000968884201D31F4870BD1C48006800790B
:104DC00000F0040008B90020F6E7FBF75FF905469C
:104DD00016490968C88809F005FE0446012C17D950
:104DE0001249096801F12800FEF7BEFE0F4800686D
:104DF000808840F004000D49096888800B4A1268D9
:104E0000D1880A4A126802F1280009F0A3FD05E0E2
:104E10002846FBF743F907480930CDE72846FBF75A
:104E20003DF9FFF795FA0020C6E700009004002046
:104E30009C04002007020002014903C970470000DA
:104E4000D804002000B587B000BF2448C06C40F0F3
:104E500004002249C8640846C06C00F004000190B8
:104E600000BF00BF00BF0846C06C40F08000C864AF
:104E70000846C06C00F08000019000BF00BF00BF7A
:104E80000846C06C40F00100C8640846C06C00F0E1
:104E90000100019000BF00BF00BF0846C06C40F099
:104EA0000200C8640846C06C00F00200019000BF18
:104EB00000BF00224FF400510948FCF701FA4FF4FB
:104EC000005002900120039000200490059002A958
:104ED0000348FCF7F1F807B000BD000000100240E5
:104EE0000008004810B51548154908601548486085
:104EF0000021134881600121C160002101614161ED
:104F00008161C1610162FCF74DFA18B144210EA024
:104F100001F0C5F800210A48FCF7DBF918B14B2174
:104F200009A001F0BCF800210548FCF707FA18B108
:104F3000522105A001F0B3F810BD0000005400405C
:104F4000440C0020EC9C90102E2E5C5372635C6924
:104F500032632E630000000010B50E480E49086051
:104F60004FF4E130486000210B488160C16001616D
:104F70000C21416100218161C1610162002006496B
:104F800048620846FDF746FF18B15B2103A001F017
:104F900086F810BD00380140DC0A00202E2E2F5369
:104FA00072632F75736172742E63000070B50446CE
:104FB0000D46164629462046FBF74CF908B100205D
:104FC00070BD4FF0FF30FBE710B54B6A33B1B2F163
:104FD000406F03D08B6A5B1E046823618B69002BD2
:104FE00076D00B6AE3B38B680468E361CB69FBB1ED
:104FF000D1E90B3423434C6B23434C6A23438C8A03
:1050000043EA84430C6923430C6A2343CC6823435B
:10501000CC6923438C6923430C68234313430468FE
:105020006361B2F1406F02D04B680468A361BEE0D7
:10503000D1E90B3423434C6B23434C6A23438C8AC2
:1050400043EA84430C6923430C6A2343CC6923431A
:105050008C6923430C682343134304686361A6E00F
:10506000FFE7CB69EBB1D1E90B3423434C6B23430E
:105070004C6A23438C8A43EA84430C6A2343CC68FA
:105080002343CC6923438C6923430C682343134394
:1050900004686361B2F1406FC9D04B680468A361D2
:1050A00085E0D1E90B3423434C6B23434C6A234303
:1050B0008C8A43EA84430C6A2343CC6923438C697A
:1050C00023430C6823431343046863616FE0FFE7E5
:1050D0000B6AC3B38B680468E361CB69EBB1D1E9B8
:1050E0000B3423434C6B23434C6A23438C8A43EA9F
:1050F00084430C6923430C6A2343CC682343CC6963
:1051000023438C692343134304686361B2F1406F06
:105110004DD04B680468A36149E0D1E90B342343C7
:105120004C6B23434C6A23438C8A43EA84430C69C7
:1051300023430C6A2343CC6923438C6923431343E1
:105140000468636133E0FFE7CB69DBB1D1E90B347D
:1051500023434C6B23434C6A23438C8A43EA8443A6
:105160000C6A2343CC682343CC6923438C692343D3
:10517000134304686361B2F1406F18D04B68046850
:10518000A36114E04B6A93B1D1E90B3423434C6B18
:1051900023434C6A23438C8A43EA84430C6A2343A7
:1051A000CC6923438C69234313430468636110BDB6
:1051B00070B504460D46681E06490968086141F24B
:1051C000883221460348FCF765FD08B9002070BD10
:1051D0000120FCE78C1C00202DE9F0478EB004462E
:1051E0000D4616461F46DDE9179ADDF858800094F3
:1051F000019505960697CDF81C80CDF80C90CDF85A
:1052000024A000200D9008900B900C9041F2883261
:1052100069460348FCF75BFC0EB0BDE8F087000070
:105220008C1C002070B504460D46681E06490968AE
:10523000086141F2883221460348FCF7A6FD08B90F
:10524000002070BD0120FCE78C1C00202DE9F041FE
:1052500004460E4617469846069D12E0681C80B12B
:10526000FCF733F8A0EB0800A84200D84DB90420A1
:1052700084F83900E06B40F00100E0630120BDE8F4
:10528000F08120688068304008B1012000E00020F3
:10529000B842E3D10020F2E72DE9F04104460E4682
:1052A000002700255B48C06800F0030090B1594812
:1052B000C06800F003002168884209D1206838B135
:1052C0005448C068C0F30210401C6168884233D063
:1052D000012531E02068012804D0022809D00328E4
:1052E0001AD10DE04B48006800F0020000B901251A
:1052F00014E04848006800F4806000B901250DE022
:105300004448006800F4003028B94248006800F4BE
:10531000802000B9012501E0012500BF00BF5DB973
:10532000D4E90010401E41EA00103A49C96821F052
:10533000730108433749C860002D68D135480068BB
:1053400020F0806033490860FBF7BFFF074606E0A6
:10535000FBF7BBFFC01B022801D9032505E02D4840
:10536000006800F000600028F2D100BFCDBB6EB92C
:10537000A0680002E168090940EA4140254909693D
:10538000254A114008432349086120E0012E0FD12E
:10539000A0680002218A0122C2EB510140EA41507B
:1053A0001C4909691D4A114008431A4908610EE069
:1053B000A0680002217D0122C2EB510140EA416058
:1053C00014490969164A11400843124908611148F5
:1053D000006840F080600F490860FBF776FF0746E1
:1053E00007E014E0FBF771FFC01B022801D9032579
:1053F00005E00848006800F000600028F2D000BF17
:105400002DB904480069A16908430249086128468A
:10541000BDE8F08100100240FF80FDFFFF809FFF8C
:10542000FF80FFF92DE9F04104460E4600270025D4
:105430005248C06800F0030090B15048C06800F0C6
:1054400003002168884209D1206838B14B48C06800
:10545000C0F30210401C6168884233D0012531E05E
:105460002068012804D0022809D003281AD10DE0B1
:105470004248006800F0020000B9012514E03F48EE
:10548000006800F4806000B901250DE03B48006829
:1054900000F4003028B93948006800F4802000B9D1
:1054A000012501E0012500BF00BF5DB9D4E900106E
:1054B000401E41EA00103149C96821F073010843D8
:1054C0002E49C860002D55D12C48006820F080502E
:1054D0002A490860FBF7F9FE074606E0FBF7F5FEF0
:1054E000C01B022801D9032505E02448006800F00C
:1054F00000500028F2D100BFE5BB6EB9A0680002E1
:10550000E168090940EA41401C4949691C4A1140C7
:1055100008431A4948610EE0A0680002217C01227C
:10552000C2EB510140EA416014494969154A1140F2
:105530000843124948611148006840F080500F4903
:105540000860FBF7C2FE074606E0FBF7BEFEC01B85
:10555000022801D9032505E00848006800F0005042
:105560000028F2D000BF2DB90448406961690843A2
:10557000024948612846BDE8F08100000010024061
:10558000FF80FDFFFF80FFF9F8B5044600260025E7
:105590002348806D00F0805018B1FCF739FA0646B8
:1055A00016E000BF1E48806D40F080501C498865A1
:1055B0000846806D00F08050009000BF00BFFCF7EF
:1055C00027FA06461648806D20F0805014498865F9
:1055D000B6F5007F07D1802C10D9A02C01D9022567
:1055E0000CE001250AE0802C01D9032506E0802C7F
:1055F00001D1022502E0702C00D101250948006884
:1056000020F007002843074908600846006800F0BA
:105610000700A84201D00120F8BD0020FCE70000EF
:105620000010024000200240DFED0A0AB0EE600ADE
:1056300020F0030000EE900AF8EE600A9FED061AD3
:1056400060EE810A9FED051AC0EE811AB0EE610A84
:1056500070470000000000000000C84200FF7F47C4
:10566000DFED0C0AB0EE600A20F0030000EE900AB5
:10567000F8EE600A9FED081A60EE810ADFED071A66
:1056800080EEA11ADFED060A71EE600AB0EE600A44
:10569000704700000000000000002F4300FF7F471C
:1056A0000000344270B503460C461546FF21002623
:1056B000002213E0985C414008260BE001F08000D6
:1056C00020B1312080EA4100C1B201E04806010E5C
:1056D000701EC6B2002EF1DC501CC2B2A242E9DB41
:1056E000A94201D0012070BD0020FCE770B504463E
:1056F0000D464FF47A732A4621460248FDF794FA84
:1057000070BD0000280D0020F8B504460E46154671
:10571000334600224FF4C0512046009500F026F891
:1057200028B1206E40F0200020660320F8BD3346EB
:10573000002280212046009500F070F828B1206EEC
:1057400040F0200020660320F0E7334600224FF4AB
:10575000C0612046009500F009F828B1206E40F0A5
:10576000200020660320E1E70020DFE72DE9F84371
:1057700004460E4617461D46DDF8208047E0B6F584
:10578000C06F05D127B92068007B00909DF800000C
:10579000681CD8B32DB1FBF798FDA0EB0800A84218
:1057A00035D32068406820F0E000216848606068D8
:1057B000B0F5827F0DD1A068B0F5004F03D0A0688E
:1057C000B0F5806F05D12068006820F040002168A6
:1057D0000860A06AB0F5005F0DD100BF20680068C6
:1057E00020F40050216808602068006840F40050F0
:1057F0002168086000BF012084F85D0000BF002020
:1058000084F85C0000BF0320BDE8F883FFE7206850
:1058100080683040B842B2D10020F5E72DE9F04170
:1058200004460E4617461D46DDF818803EE0681C0B
:10583000D8B32DB1FBF749FDA0EB0800A84235D342
:105840002068406820F0E000216848606068B0F59A
:10585000827F0DD1A068B0F5004F03D0A068B0F5ED
:10586000806F05D12068006820F040002168086042
:10587000A06AB0F5005F0DD100BF2068006820F479
:105880000050216808602068006840F400502168DA
:10589000086000BF012084F85D0000BF002084F88C
:1058A0005C0000BF0320BDE8F081FFE7206880684E
:1058B0003040B04201D1012000E00020B842B6D112
:1058C0000020F0E71CB510200190FF20012301AA61
:1058D000462100900148FBF77DFE1CBD440C0020D2
:1058E00000B5B9B0FCF79CF83648006820F0180005
:1058F00034499039C1F890001620289001202A9050
:1059000000022B9010202C9001202E9000202F9030
:105910006020309002203290012128A8C1620163EA
:1059200028214163072181630221C1630164FCF7DF
:1059300067FE18B15F2124A000F0B1FB0F20239077
:10594000032024900020259026902790042123A84E
:10595000FCF7F4FC18B16D211BA000F0A0FB1F4860
:10596000019000200F90109011904FF4006014905F
:1059700000201590169017904FF080501F908010C7
:105980001D90012002900121039110210491072113
:1059900005910221069107914FF08871089101A8A5
:1059A000FCF762FA18B1872107A000F078FB4FF4EA
:1059B0000070FBF7E7FF18B18E2103A000F06FFB2A
:1059C00039B000BD901002402E2E5C5372635C73A0
:1059D00079735F696E69742E63000000E741080007
:1059E0001048006840F470000E4908600E480068D6
:1059F00040F001000C4908600020886008460068FB
:105A00000A490840084908608814C86008460068C8
:105A100020F4802008600020886105480149803911
:105A20000860704788ED00E000100240FFFFF6EAD2
:105A30000000010890F8241001F0010139B101685B
:105A4000496821F40031826A11430268516090F87C
:105A5000241001F00201022907D10168496821F4EC
:105A60008031C26A11430268516090F8241001F03D
:105A70000401042907D10168496821F48021026BDF
:105A800011430268516090F8241001F008010829C0
:105A900007D10168496821F40041426B1143026853
:105AA000516090F8241001F01001102907D101680D
:105AB000896821F48051826B11430268916090F8EB
:105AC000241001F02001202907D10168896821F400
:105AD0000051C26B11430268916090F8241001F0EC
