:020000040800F2
:10000000200900209D010008A31B0008D318000848
:10001000A11B0008D50200089B2500080000000075
:10002000000000000000000000000000591E000851
:10003000D702000800000000A51B00085B1E000896
:10004000B7010008B7010008B7010008B7010008B0
:10005000B7010008B7010008B7010008B7010008A0
:10006000B7010008B7010008B7010008B701000890
:10007000B7010008B7010008B7010008B701000880
:10008000B7010008B7010008B7010008B701000870
:10009000B7010008B7010008B7010008B701000860
:1000A000B7010008B7010008B7010008B701000850
:1000B000B7010008B7010008B7010008B701000840
:1000C000B7010008B7010008B7010008B701000830
:1000D000B7010008A1230008AD230008B9230008D8
:1000E000B7010008B7010008B7010008B701000810
:1000F000B7010008B7010008B7010008B701000800
:10010000B7010008B7010008B7010008B7010008EF
:10011000B7010008511F0008B7010008B701000827
:10012000B7010008B7010008B7010008B7010008CF
:10013000B7010008B7010008B7010008B7010008BF
:10014000B7010008B7010008B7010008B7010008AF
:10015000B7010008B7010008B7010008B70100089F
:10016000B7010008B7010008B7010008B70100088F
:10017000B7010008B7010008B7010008000000003F
:10018000B7010008B7010008DFF80CD000F090F8C4
:1001900000480047DB25000820090020064880476A
:1001A00006480047FEE7FEE7FEE7FEE7FEE7FEE75C
:1001B000FEE7FEE7FEE7FEE70D1F000889010008E5
:1001C0002DE9F05F0546002092469B46884606468C
:1001D000814640241BE0284641464746224600F01F
:1001E00056F853465A46C01A914110D31146184644
:1001F000224600F03DF82D1A67EB01084F462246D3
:100200000120002100F034F817EB00094E41201EB8
:10021000A4F10104DFDC484631462A46434600F09B
:1002200000B830BCBDE8C09F40EA01039B0703D083
:1002300009E008C9121F08C0042AFAD203E011F825
:10024000013B00F8013B521EF9D27047D2B201E0E7
:1002500000F8012B491EFBD270470022F6E710B5CB
:1002600013460A4604461946FFF7F0FF204610BD24
:10027000202A04DB203A00FA02F100207047914066
:10028000C2F1200320FA03F3194390407047202A5B
:1002900004DB203A21FA02F00021704721FA02F330
:1002A000D040C2F120029140084319467047000037
:1002B000064C074D06E0E06840F0010394E80700B3
:1002C00098471034AC42F6D3FFF762FF4826000887
:1002D00068260008FEE77047704710B590F82510B3
:1002E0000024022903D00421C16301241AE001681B
:1002F0000A6822F00E020A6001680A6822F0010210
:100300000A6090F84410036C01F01C02012101FA0C
:1003100002F25A6080F82510002180F82410816BC9
:1003200001B18847204610BD70B5044600F046F97B
:100330000546601C02D004480078044400F03EF9F1
:10034000401BA042FAD370BD000000202DE9F04F01
:10035000DFF83492002309F1040A012403250AF18D
:10036000040B87B00F270BF1040E04E104FA03F627
:1003700032407CD0D1F804C0BCF1010F08D0BCF1F0
:10038000020F05D0BCF1110F02D0BCF1120F29D120
:10039000D0F808C0CDF800C04FEA430C05FA0CF8BD
:1003A000CDF80CC0DDF800C02CEA080CCDF800C078
:1003B000D1F80C80DDF80CC008FA0CF8DDF800C0AC
:1003C00048EA0C08C0F80880D0F8048091F804C00E
:1003D00028EA0608CCF3001C0CFA03FC4CEA080CD3
:1003E000C0F804C0D1F804806FEA080C5FEA8C7C86
:1003F00009D1D0F82CC02CEA060CC8F3C0069E40E8
:1004000046EA0C06C662D0F80CC04FEA430805FA6B
:1004100008F62CEA060CCDF8148002968E6806FACF
:1004200008F646EA0C06C6604E68022E01D0122E6F
:1004300015D1DE0800EB86060396366A4FEA437C48
:100440004FEADC6807FA08FC26EA0C06D1F810C06F
:100450000CFA08FC4CEA060C039EC6F820C006689D
:10046000DDF808C026EA0C0691F804C000E081E03F
:10047000DDF814800CF0030C0CFA08FC4CEA060CB6
:10048000C0F800C04E68F60074D5404ED6F860C083
:100490004CF0010CC6F860C0366E23F0030C06F079
:1004A000010600963A4E66440296D6F808C09E07AA
:1004B0004FEA167807FA08F62CEA060CB0F1904FCE
:1004C00004D0344EB04203D101261BE0002619E0CF
:1004D000314EB04201D1022614E0304EB04201D17B
:1004E00003260FE02E4EB04201D104260AE02D4E25
:1004F000B04201D1052605E02B4EB04201D10626BF
:1005000000E0072606FA08F646EA0C06DDF808C001
:10051000CCF80860D9F80060CC46D1F80480964346
:100520005FEAC83800D51643CCF80060DAF80060FE
:10053000D446D1F8048096435FEA883800D5164344
:10054000CCF80060DBF80060DC46D1F8048096430C
:100550005FEAC82800D51643CCF80060DEF80060DA
:10056000F446D1F8048096435FEA882800D5164304
:10057000CCF800605B1C0A6832FA03F67FF4F6AE32
:1005800007B000F013B80000000401400010024062
:10059000000001400004004800080048000C00482A
:1005A00000100048001400480018004830BCBDE8A6
:1005B000C08F0AB1816170478162704701488068CD
:1005C000704700000000002070B58AB0040005D01C
:1005D00094F8B9022568002618B107E001200AB096
:1005E00070BD84F8B862204600F028F8032084F833
:1005F000B902E86BC00500D42661206801F02EFF27
:1006000004F1100128220D466846FFF70DFE94E81C
:100610000F0001F0D7FE0121206801F0A7FF28227A
:1006200029466846FFF700FE94E80F0001F054FFEA
:10063000012084F8B9020020D1E7000010B586B08F
:10064000044614216846FFF708FE2068B0F1A04F69
:1006500031D11B4CE06C40F00100E064E06C694675
:1006600000F0010005904FF4C0500090022001906E
:1006700000200290032003900A2004904FF0904045
:10068000FFF764FEE06C40F48050E064E06C00F43E
:1006900080500590A06DC0000FD4A06D40F0805038
:1006A000A065A06D00F08050059000F0BBF9A06D32
:1006B00020F08050A06506B010BD00F0B3F9FAE755
:1006C0000010024090F84120202A24D190F84020C8
:1006D000012A20D0012280F84020242280F84120E5
:1006E0000268136823F0010313600268136823F49F
:1006F00080531360026813680B43136001680A6833
:1007000042F001020A60202180F84110002180F8A7
:100710004010084670470220704790F84120202A78
:1007200022D190F84020012A1ED0012280F84020DA
:10073000242280F841200268136823F0010313602B
:100740000268136823F4706343EA012111600168B1
:100750000A6842F001020A60202180F8411000215D
:1007600080F84010084670470220704770B50400BA
:1007700004D094F84100002510B106E0012070BDBE
:1007800084F84050204600F04DF8242084F84100C1
:100790002068016821F0010101606068216820F093
:1007A000706008612068816821F400418160E06820
:1007B0000128A06807D040F4044021688860E06800
:1007C000022803D006E040F40040F6E721684FF429
:1007D0000060486020684168114A11434160206808
:1007E000C16821F40041C160D4E904010843A16952
:1007F00040EA01202168C860D4E907010843216864
:1008000008602068016841F00101016065642020F2
:1008100084F84100256384F84250002070BD000038
:100820000080000210B586B0044614216846FFF728
:1008300014FD1349206888421FD1124CE06C40F02F
:100840000200E064E06C694600F0020005904FF49D
:10085000406000901220019001200290032003903C
:10086000042004900848FFF771FDA06D40F480005B
:10087000A065A06D00F48000059006B010BD0000DA
:1008800000580040001002400004004802488168FF
:1008900002781144816070470000002010B50024E8
:1008A000032000F071F8002000F008F808B10124DE
:1008B00001E000F025F8204610BD000070B50E4E96
:1008C00005460024307898B14FF47A71B1FBF0F00E
:1008D0000A490968B1FBF0F000F036FE40B9102D6E
:1008E00006D200222946501E00F02EF8756000E066
:1008F0000124204670BD0000000000200C000020F4
:10090000094808B5016E41F001010166016E01F070
:1009100001010091816D41F080518165806D00F091
:100920008050009008BD000000100240002809DB44
:1009300000F01F02012191404009800000F1E020F9
:10094000C0F8001170470000F0B40E4B1B680C4655
:10095000C3F30223C3F10705042D00D90425191D93
:10096000072901D2002300E0DB1E012606FA05F16B
:10097000491E214099409E40761E16403143F0BCEE
:1009800001F00CBE0CED00E0064900F0070208681B
:100990004FF6FF03184040EA0220034A1043086064
:1009A000704700000CED00E00000FA051649B0F5B4
:1009B000007F0868C0F3412009D0022805D00868EC
:1009C00020F4C06040F48060086000207047012877
:1009D000FBD0086820F4C06040F4007008600B4849
:1009E0003222006850430A4AB0FBF2F0401C00E09B
:1009F000401E4A69520501D50028F9D148694005D1
:100A0000E3D5032070470000007000400C00002078
:100A100040420F000248416841F400714160704754
:100A2000007000400248416841F4806141607047B5
:100A3000007000400248006800F4C0607047000089
:100A4000007000400248016841F480710160704705
:100A5000007000400248016841F0040101607047E5
:100A6000001002402DE9F84F044600270088E54DAC
:100A70003E46010504F1200B1DD5606E78B1B0F53E
:100A8000800F11D0B0F5000F04D0B0F5400F22D088
:100A900001270FE0E86840F48030E8601BE00021A7
:100AA000201D01F081F803E00021584601F012F901
:100AB000070010D03E462088C00426D5A06EC0B1E5
:100AC000B0F1807F1AD0B0F1007F0DD0B0F1407F3F
:100AD00019D0012718E0D5F88800616E20F4400095
:100AE0000843C5F88800E6E7E86840F48030E8602D
:100AF00009E00021201D01F057F803E000215846CD
:100B000001F0E8F80746F7B13E46206880033AD581
:100B1000A86D4FF00008C00009D4A86D40F08050C7
:100B2000A865A86D4FF0010800F080500090DFF834
:100B3000D8A2DAF8001041F48071CAF80010FFF76B
:100B40003DFD814610E0D5F88800A16E20F0407090
:100B50000843C5F88800D8E7FFF730FDA0EB09008F
:100B6000022801D9032705E0DAF80000C005F3D513
:100B7000002F7CD04FEA0706B8F1000F03D0A86D14
:100B800020F08050A8652078C00707D0D5F88800ED
:100B9000A16B20F003000843C5F888002078800787
:100BA00007D5D5F88800E16B20F00C000843C5F8A4
:100BB00088002078400707D5D5F88800216C20F000
:100BC00030000843C5F888002078000707D5D5F81D
:100BD0008800616C20F0C0000843C5F888002078C8
:100BE000C00607D5D5F88800A16C20F440700843F2
:100BF000C5F888002078800607D5D5F88800E16C14
:100C000020F440600843C5F888002088800507D597
:100C1000D5F88800E16D20F440200843C5F888002D
:100C20002088400507D5D5F88800216E20F44010B3
:100C30000843C5F888002078400607D5D5F8880015
:100C4000216D20F440500843C5F888002078000644
:100C500007D5D5F88800616D20F440400843C5F8F9
:100C600088002088C00509D5D5F8880000E01CE080
:100C7000A16D20F440300843C5F8880020884FF06B
:100C8000006780044FF080684FD5D5F88800E16E8A
:100C900020F040600843C5F88800E06EB8423CD1BF
:100CA000E86840F48010E8603FE0D5F8900010F468
:100CB000407015D0D4F88410814211D0D5F890003E
:100CC000D5F8901020F4407041F48031C5F89010B0
:100CD000D5F8901021F48031C5F89010C5F8900037
:100CE000C00710D0FFF76AFC074641F2883906E0DA
:100CF000FFF764FCC11B494501D903263CE7D5F841
:100D000090008007F4D5D5F89000D4F8841020F432
:100D100040700843C5F890002EE7404505D10121F9
:100D2000201D00F041FF00B106462068000317D5E2
:100D3000D5F88800216F20F040600843C5F888008E
:100D4000206FB84204D1E86840F48010E86007E002
:100D5000404505D10121201D00F026FF00B10646C7
:100D60002068400317D5D5F88800616F20F04060F7
:100D70000843C5F88800606FB84204D1E86840F4C1
:100D80008010E86007E0404505D10121201D00F0FA
:100D90000BFF00B10646208840041AD5D5F888001C
:100DA000A16F20F040500843C5F88800A06FB0F153
:100DB000805F03D0B0F1005F05D00AE00221201D62
:100DC00000F0F2FE03E00221584600F083FF00B17C
:100DD00006462088000407D5D5F88800E16F20F08A
:100DE00080400843C5F888002068C00307D555F83F
:100DF000880FD4F8801020F0004008432860304667
:100E000000F004B8001002400070004018BCBDE8BB
:100E1000E08F00002DE9F0470F46050058D0404E06
:100E2000306800F00700B84209D2306820F00700AF
:100E300038433060306800F00700B84248D1287865
:100E4000384CC0072CD06868032811D0022812D073
:100E5000216898B1490500293ADAA16821F0030117
:100E60000143A160FFF7AAFB804641F2883910E0F8
:100E700021688901EFE721688903ECE78907EAE740
:100E8000FFF79CFBA0EB0801494502D90320BDE810
:100E9000F087A068696800F00C00B0EB810FEFD11B
:100EA0002878800705D5A068A96820F0F0000843DD
:100EB000A060306800F00700B8420BD9306820F01D
:100EC000070038433060306800F00700B84201D0B6
:100ED0000120DCE72878400705D5A068E96820F400
:100EE000E0600843A0602878000706D5A06829695B
:100EF00020F4605040EAC100A06000F03FF8A16813
:100F0000094AC1F30311515C01F01F01C8400749B0
:100F1000086007480068BDE8F047FFF7CFBC000055
:100F20000020024000100240002600080C000020B3
:100F3000040000200548064900688968054AC1F395
:100F40000221515C01F01F01C84070470C000020D5
:100F500000100240402600080548064900688968DC
:100F6000054AC1F3C221515C01F01F01C84070471E
:100F70000C000020001002404026000870B52549F2
:100F8000002318468A68CC6812F00C0204F00306AD
:100F9000214C4FEA640509D00C2A05D0042A32D02E
:100FA000082A00D1284670BD012E10D10B681B07FE
:100FB00004D4D1F89430C3F3032302E00B68C3F3E5
:100FC0000313164E56F82330DAB10C2AEBD1C86859
:100FD00000F00300022818D0032818D01846CA6869
:100FE000CB68C2F30212C3F306234343521CB3FB84
:100FF000F2F2C868C0F34160401C4000B2FBF0F060
:1010000070BD184670BD204670BD2046E7E72846F3
:10101000E5E70000001002400024F400102600085C
:101020002DE9F84304006FD0FE4DA86800F00C06CF
:10103000E86800F003072078C00664D576B10C2E6E
:1010400001D1012F0AD0A069002828687AD040F089
:1010500001002860FFF7B2FA80465DE0286880074B
:1010600002D5A0690028DED0216A2868000703D5D0
:10107000286800F0F00004E0D5F89400F02202EABD
:101080001010814216D9084600F0A8FE00283BD176
:10109000286840F0080028602868216A20F0F000E5
:1010A000084328606868E16920F47F4040EA012035
:1010B000686016E0286840F0080028602868216A07
:1010C00020F0F000084328606868E16920F47F4060
:1010D00040EA0120686026B9206A00F07FFE0028FF
:1010E000D5D1FFF74BFFA968CF4AC1F30311515C7B
:1010F00001F01F01C840CD490860CD480068FFF7E6
:10110000DDFB00287ED12EE0CAE000BFFFF756FAD3
:10111000A0EB0800022876D828688007F6D5286852
:1011200040F0080028602868216A20F0F000084399
:1011300028606868E16920F47F4040EA0120686027
:1011400011E0FFE720F001002860FFF737FA804642
:1011500006E000BFFFF732FAA0EB08000228DAD859
:1011600028688007F6D42078C00740D0082E18D011
:101170000C2E01D1032F14D06068B0F5803F17D03A
:10118000B0F5A02F286817D020F480302860286898
:1011900020F4802028606068E0B1FFF70FFA8046F5
:1011A00014E02868800322D56068002878D01EE00B
:1011B000286840F48030EDE740F480202860F7E7AD
:1011C000FFF7FCF9A0EB08006428A4D82868800386
:1011D000F6D50CE0FFF7F2F9804605E0FFF7EEF9EF
:1011E000A0EB0800642896D828688003F6D42078FD
:1011F00080073BD5042E11D00C2E01D1022F0DD02B
:10120000E06801E092E1F1E0002828681ED040F497
:1012100080702860FFF7D2F907460CE02868400587
:101220000CD5E0680028C1D008E000BFFFF7C6F980
:10123000C01B022893D828684005F7D56868217C30
:1012400020F0F85040EA016068600FE020F4807000
:101250002860FFF7B3F9074605E000BFFFF7AEF9D6
:10126000C01B0228B1D828684005F7D420780007B1
:1012700029D560690028D5F8940012D040F001000B
:10128000C5F89400FFF79AF9074604E0FFF796F9CE
:10129000C01B022899D8D5F894008007F6D512E033
:1012A00000E120F00100C5F89400FFF787F9074638
:1012B00005E000BFFFF782F9C01B022885D8D5F8EA
:1012C00094008007F6D42078400766D5A86D0027E3
:1012D000C00008D4A86D40F08050A865A86D012713
:1012E00000F08050009053480168C90512D401688D
:1012F000814641F480710160FFF760F9804605E0A6
:10130000FFF75CF9A0EB080002286FD8D9F80000BD
:10131000C005F5D5A068012816D00528D5F890009D
:1013200017D020F00100C5F89000D5F8900020F00B
:10133000040000BFC5F89000A06841F28839C0B130
:10134000FFF73CF980460FE0D5F8900040F001002F
:10135000F0E740F00400C5F89000F5E7FFF72EF93C
:10136000A0EB0801494541D8D5F890008007F5D594
:101370000EE0FFF723F9804606E000BFFFF71EF9F5
:10138000A0EB0801494531D8D5F890008007F5D485
:101390001FB1A86D20F08050A865A06A38B302285C
:1013A0000AD00C2E7ED0286820F080702860286833
:1013B00010F0205F77D0AAE0E868E26A00F003014D
:1013C00091422BD1216B00F070020901103991423A
:1013D00024D1626B00F4FE41B1EB022F1ED1A26B4F
:1013E00000F40031072A03D0012202E09DE089E0E9
:1013F0000022914212D1A18F00F4C0024908490590
:10140000A1F50011914209D194F8401000F0C0609C
:1014100049084906A1F1007181425CD00C2E41D0EF
:10142000286809E000100240002600080C00002097
:10143000040000200070004040017ED42868C000F5
:101440007BD4286820F080702860FFF7B7F8064644
:1014500005E000BFFFF7B2F8801B022865D82868B6
:101460008001F7D4D4E90B016FF00F0202EB0111F8
:101470000843A18F5204490802EB4151626B41EAD3
:101480000221084394F840104FF07E42490802EBD5
:1014900041610843A16B090940EA4140E968284AD3
:1014A000114001E049E02EE00843E860286840F080
:1014B00080702860E86840F08070E860FFF77EF890
:1014C000044604E0FFF77AF8001B02282DD82868AC
:1014D0008001F7D52FE0286880012CD4286840F0DF
:1014E00080702860E86840F08070E860FFF766F878
:1014F000044604E0FFF762F8001B022815D82868AC
:101500008001F7D517E0E86820F00300E860E8689C
:101510000C490840E860FFF751F8044608E000BFB6
:10152000FFF74CF8001B022802D90320BDE8F8831E
:1015300028688001F4D40020F8E70120F6E70000D5
:101540008C809DF9FFFFEEFE10B5401EB0F1807F4C
:1015500001D3012010BD4FF0E02460610F2160171E
:1015600001F01CF80020A06107202061002010BDC0
:10157000704770472DE9F04102680446D069116850
:10158000936840F60F0528424FF0000505D1860606
:101590007BD58E0679D5216E88E04D4F03F001068C
:1015A0000F40374371D0C70707D0CF0505D50127B6
:1015B0001762E26F42F00102E267820708D5DA079C
:1015C00006D0276802223A62E26F42F00402E26724
:1015D000420708D5DA0706D0236804221A62E26FB0
:1015E00042F00202E26702070AD501F0200232430C
:1015F00006D0236808221A62E26F42F00802E2670E
:10160000020509D54A0107D523684FF400621A6222
:10161000E26F42F02002E267E26F002A2ED08006DD
:1016200005D5880603D5216E09B120468847E06FAD
:1016300021688968490602D410F0280F20D020467E
:1016400000F026FD20688168490614D5816821F0E4
:1016500040018160E06E70B11E498163E06EFEF76B
:101660003CFE00280AD0E06E816B00E02046BDE819
:10167000F041084709E02046FFF77BFFBDE8F08115
:101680002046FFF776FFE567F8E7C60209D55B025B
:1016900007D54FF4801010622046BDE8F041FFF7F7
:1016A00067BF030605D50B0603D5616E0029DDD1A2
:1016B000E4E74006E2D54806E0D51168204621F06F
:1016C0004001116020216167656600F001F9D5E7EE
:1016D000200100047D20000810B5040002D0606FD6
:1016E00010B107E0012010BD002084F870002046F2
:1016F00000F026F8242060672068016821F00101CD
:101700000160204600F0D4FC0128ECD0606A10B1E2
:10171000204600F023FC2068416821F4904141609C
:101720002068816821F02A0181602068016841F009
:10173000010101602046BDE8104000F073BC0000CC
:101740002DE9F04186B0044614216846FEF785FD78
:10175000584A21680024584802250326DFF85C8196
:10176000914233D1816D41F480118165816D01F425
:1017700080110591C16C41F00401C164C16C01F09C
:1017800004010591C16C41F00801C164C06C0827D7
:1017900000F0080005909014CDE9000502AA694602
:1017A00082E8D0004648FEF7D1FD0420CDE90005CF
:1017B00002AA694682E8D0004046FEF7C7FD002233
:1017C00011463520FFF7C0F8352025E03D4B0722B4
:1017D000994226D1016E41F480410166016E01F407
:1017E00080410591C16C41F00101C164C06C02945B
:1017F00000F0010005904FF4C060CDE90005CDE98F
:10180000036269464FF09040FEF7A0FD00221146AA
:101810002520FFF799F82520FFF788F806B0BDE8E6
:10182000F081294B994220D1816D41F400318165CD
:10183000816D01F400310591C16C41F00801C16472
:10184000C06C029400F0080005906020CDE900050E
:10185000CDE9036269464046FEF778FD0022114655
:101860002620FFF771F82620D6E7184B9942D5D1EC
:10187000816D41F480218165816D01F480210591A4
:10188000C16C41F00801C164C06C029400F0080012
:1018900005904FF44070CDE90005CDE9036269463B
:1018A0004046FEF753FD002211462720FFF74CF873
:1018B0002720B1E70050004000100240000C004813
:1018C0000008004800380140004400400048004043
:1018D0007047FEE72DE9F04186B014216846FEF717
:1018E000BCFC4A4CE06C40F00400E064E06C00F0AA
:1018F00004000590E06C40F08000E064E06C00F0D3
:1019000080000590E06C40F02000E064E06C00F0A6
:1019100020000590E06C40F04000E064E06C00F0D6
:1019200040000590E06C40F00200E064E06C00F0E4
:1019300002000590E06C40F00800E064E06C00F00C
:1019400008000590FFF766F8E06C40F00100E064E5
:10195000E06C2F4E00F001004FF408450590002286
:1019600029463046FEF725FEDFF8A88000225621E2
:101970004046FEF71EFE284F002203213846FEF7A0
:1019800018FE022000900B200024CDE901046946D6
:101990002248FEF7DBFC00950125CDE9015469469C
:1019A00030460394FEF7D2FC56200090CDE9015456
:1019B000694640460394FEF7C9FC03260096CDE92C
:1019C0000154694638460394FEF7C0FC1820CDE95F
:1019D0000004694638460294FEF7B8FC4FF478508C
:1019E000CDE90004694640460294FEF7AFFCC020F2
:1019F000009001A9122081E861000420049069464A
:101A00000748FEF7A3FC06B0BDE8F08100100240D5
:101A10000014004800180048000C00480008004866
:101A200000040048134810B5114901601249416093
:101A300000210122C0E90212016141618161C1619D
:101A40000162FEF793FE08B1FEF746FC002109484B
:101A5000FEF738FE08B1FEF73FFC00210548FEF70F
:101A60005CFE002803D0BDE81040FEF735BC10BD79
:101A70000058004010000020EC9C90100D4810B55C
:101A80000B4901604FF4E1314160002181600C227B
:101A9000C160C0E904128161C16101624162FFF766
:101AA0001BFE002803D0BDE81040FEF715BC10BD9A
:101AB000005000405C0000200D4810B50B4901604B
:101AC0004FF4E1314160002181600C22C160C0E926
:101AD00004128161C16101624162FFF7FDFD0028CE
:101AE00003D0BDE81040FEF7F7BB10BD0038014041
:101AF000DC0000200D4810B50B4901604FF4E131C6
:101B00004160002181600C22C160C0E90412816142
:101B1000C16101624162FFF7DFFD002803D0BDE82B
:101B20001040FEF7D9BB10BD004400405C0100200E
:101B30000D4810B50B4901604FF4E13141600021BF
:101B400081600C22C160C0E904128161C16101623F
:101B50004162FFF7C1FD002803D0BDE81040FEF749
:101B6000BBBB10BD00480040DC0100200B4810B595
:101B70004FF0A04101600821816001210022C0E9ED
:101B800003120221C0E90612FEF71EFD002803D051
:101B9000BDE81040FEF7A0BB10BD00005C020020B5
:101BA000FEE77047704700002DE9F041444C0546C0
:101BB0008846E0680026810728680DD0E16801F0BA
:101BC0000301814216D1A8B1E0686968C0F3021030
:101BD000401C88420ED120E0012804D0022805D004
:101BE000032807D108E02168890701E02168490539
:101BF000002907DB01265FE02168890302D4216800
:101C00004903F5E7E1686A686FF00F0321F073019B
:101C100003EB021211430143E160206820F0806071
:101C20002060FEF7CBFC074605E000BFFEF7C6FCD0
:101C3000C01B022837D820680001F7D4B8F1000F84
:101C400018D0B8F1010F1ED0287D4FF07E4140081A
:101C500001EB4060A96840EA01202169194A11405E
:101C600008432061206840F080602060FEF7A6FCF9
:101C700007461AE0A868E9680002090940EA4140FD
:101C80002169114AEBE7288A1049400801EB4050CE
:101C9000A96840EA012021690D4AE0E7FEF78EFCC1
:101CA000C01B022801D9032606E020680001F5D5F3
:101CB0002069A969084320613046BDE8F081000031
:101CC00000100240FF80FFF9FF80FDFF0000E0FFF1
:101CD000FF809FFF2DE9F0413D4C06468846E068B5
:101CE0000025810730680DD0E16801F003018142D1
:101CF00016D1A8B1E0687168C0F30210401C884298
:101D00000ED120E0012804D0022805D0032807D1F5
:101D100008E02168890701E021684905002907DBFF
:101D2000012551E02168890302D421684903F5E7C0
:101D3000E16872686FF00F0321F0730103EB021288
:101D400011430143E160206820F080502060FEF7DD
:101D500035FC074605E000BFFEF730FCC01B02283B
:101D600029D820688000F7D4B8F1000F15D0307C56
:101D70004FF07E41400801EB4060B16840EA01202D
:101D80006169144A114008436061206840F0805046
:101D90002060FEF713FC07460FE0B068F168000210
:101DA000090940EA414061690B4AEBE7FEF706FC8E
:101DB000C01B022801D9032506E020688000F5D564
:101DC00060697169084360612846BDE8F0810000E0
:101DD00000100240FF80FFF9FF80FDFFF8B51C4DA9
:101DE00006460024A86DC00002D5FEF723FE0DE0D4
:101DF000A86D40F08050A865A86D00F0805000905C
:101E0000FEF718FEA96D21F08051A965B0F5007F9D
:101E100004D0802E07D94FF003040AE0802E08D9A1
:101E2000A02E01D804E001D1022402E0702E00D1DE
:101E300001240848016821F007012143016000687E
:101E400000F00700A04201D00120F8BD0020F8BD3D
:101E500000100240002002407047FEF717BD00004E
:101E6000F0B5B9B0442122A8FEF7F7F9142133A840
:101E7000FEF7F3F988216846FEF7EFF9FEF7E2FD79
:101E8000214850F8901F21F018010160142001250D
:101E9000002424952290CDE9285402266020CDE923
:101EA0002C652A9028200727CDE92E50CDE93076E1
:101EB000329622A8FFF7B4F80F2033900320CDE923
:101EC00034043694042133A83794FEF7A3FF42F27A
:101ED00097000F940090A8061B9012941820CDE94B
:101EE000025010941594019528050E94CDE90660D2
:101EF000CDE904766846FEF7B5FD6802FEF756FDAB
:101F0000FEF7A8FD39B0F0BD001002400D48016891
:101F100041F4700101600C48016841F00101016069
:101F2000002181600268094B1A4002608214C2607D
:101F3000026822F48022026081610249C003803974
:101F40000860704788ED00E000100240FFFFF6EAED
:101F50000148FFF70FBB00005C00002090F8241040
:101F6000C90706D001684A68836A22F400321A431E
:101F70004A6090F82410890706D501684A68C36A48
:101F800022F480321A434A6090F82410490706D59B
:101F900001684A68036B22F480221A434A6090F871
:101FA0002410090706D501684A68436B22F40042F1
:101FB0001A434A6090F82410C90606D501688A6859
:101FC000836B22F480521A438A6090F824108906A9
:101FD00006D501688A68C36B22F400521A438A60EE
:101FE00090F82410490611D501684A68036C22F460
:101FF00080121A434A60016CB1F5801F06D1016856
:102000004A68436C22F4C0021A434A6090F82410D4
:10201000090606D501684A68806C22F40022024352
:102020004A607047F8B500260446C667FEF7C6FA50
:102030000546206800686FF07E47000708D52B46EC
:1020400000224FF400112046009700F057F960B9C4
:102050002068006840070AD52B4600224FF4800113
:102060002046009700F04AF908B10320F8BD20206F
:102070006067A06784F870600020F8BD10B5806AC2
:102080000021A0F85A10A0F85210FFF772FA10BD04
:1020900001680A6822F490720A6001688A6822F076
:1020A00001028A60202181670021016670470000DB
:1020B0002DE9F0410446016880682269E369104314
:1020C000626900251A431043824F0A68824B1A4006
:1020D00002430A6020684168E26821F440511143DC
:1020E00041602168A069B94201D0226A10438A6820
:1020F00022F4306202438A607849226878488A4232
:102100000DD1D0F8880010F0030006D0012866D069
:10211000022854D0032851D163E001204FE07149D7
:102120008A420BD1D0F8880010F00C0047D0042868
:1021300045D0082851D00C2840D152E06A498A4243
:102140000BD1D0F8880010F0300038D0102846D0DD
:10215000202842D0302831D143E064498A420BD153
:10216000D0F8880010F0C00029D0402837D080284F
:1021700033D0C02822D134E05D498A420ED1D0F854
:10218000880010F440701AD0B0F5807F27D0B0F5E9
:10219000007F22D0B0F5407F10D122E0BA420DD1AD
:1021A000D0F8880010F4406009D0B0F5806F16D0E8
:1021B000B0F5006F11D0B0F5406F12D010204D4B2C
:1021C00000264FF40041BA422ED160B1022813D04C
:1021D00004280BD0082874D10DE00220EFE704207A
:1021E000EDE70820EBE7FEF7A5FE01E0FEF7C6FEEF
:1021F000030001D169E00B46626802EB420098429D
:102200005FD8B3EB023F5CD8190E180273084FEA8F
:102210003207C01959410023FDF7D2FF364AA0F515
:10222000407191424FD94CE0E2694FF6EF778A4214
:1022300028D1092845D2DFE800F0050811440D44F3
:1022400044441000FEF776FE01E0FEF785FE030031
:1022500004D13AE0FEF792FEF9E70B4660685900B8
:1022600001EB5001B1FBF0F080B2A0F11001B942D6
:1022700027D84FF6F0710140C0F3420001432068B7
:10228000C16022E009281CD2DFE800F00508111B1C
:102290000D1B1B1B1000FEF74DFE01E0FEF75CFE60
:1022A000030004D111E0FEF769FEF9E70B46606810
:1022B00003EB5001B1FBF0F080B2A0F11001B94284
:1022C00001D9012501E02168C860266628466666B6
:1022D000BDE8F08100800040F369FFEF0038014065
:1022E000001002400044004000480040004C004004
:1022F000005000400024F400FFFC0F002DE9F047DF
:102300009A4617460E4604464FF000094FF0200843
:10231000089D39E0681C37D0FEF750F9A0EB0A00A1
:10232000A84222D80DB32068016849072CD5C0699E
:10233000C043000528D421684FF40060086220687B
:10234000016821F4D07101602068816821F00101E9
:102350008160C4F87480C4F87880C4F87C8000BFC1
:1023600084F870900320BDE8F0872068016821F4AC
:10237000D07101602068816821F001018160C4F89A
:102380007480C4F87880EBE72068C06936EA000002
:1023900004D00020B842BDD00020E4E70120F9E7D6
:1023A0000148FFF7E7B80000DC0000200148FFF714
:1023B000E1B800005C0100200148FFF7DBB8000035
:1023C000DC01002070B5044606990A9D0D9801298C
:1023D0000CD0E06840F04000E060204600F022F8B9
:1023E000A16BD5B121F48031A16370BDA16B21F443
:1023F0008031A163E1680A4A1140E160E16821F49B
:102400004011E160012803D1E06840F48010E060F1
:102410002046BDE8704000F005B841F48031E3E7A4
:10242000BFFFBDFF01220C4902E0521C8A420BD8BB
:102430000369002BF9DA026942F00102026101220C
:1024400004E0521C8A4201D9032070470369DB076C
:10245000F7D1002070470000400D0300816821F093
:10246000010181600020704708B5D0F8402422F0B7
:102470002E020092D20405D4012909D1009941F419
:10248000805103E021B9009921F48051C0F8401433
:10249000002008BD002110220261054A491C91421A
:1024A00001D9032070470369DB06F7D40020704789
:1024B000400D03000022202343EA811101610549F8
:1024C000521C8A4201D90320704703699B06F7D446
:1024D00000207047400D03002DE9F041002517460C
:1024E0000446C0F8005E806B20F40010A063A06B6F
:1024F00020F40030A063D4F8000420F00400C4F8F5
:10250000000410212046FFF7D5FF2046FFF7C2FF49
:102510000020461E07E000BF04EB4011C1F808652B
:10252000C1F80C55401C8742F6D801212046FFF720
:102530009BFFC820FDF7F8FEA56166618020606200
:102540000748A0620748C4F80001A06940F01000E5
:10255000A061A06904490843A0610020BDE8F081A2
:1025600080006000E0004000080020A310B5C268B1
:1025700022F0C042C260012902D029B1012010BD61
:10258000C16841F0005102E0C16841F08041C16082
:102590003220FDF7C9FE002010BDFEE70907090E35
:1025A000002804DB00F1E02080F80014704700F000
:1025B0000F0000F1E02080F8141D704702E008C809
:1025C000121F08C1002AFAD170477047002001E0AD
:1025D00001C1121F002AFBD17047FEF75FF9FFF718
:1025E0003FFCFFF777F9FFF71DFAFFF747FAFFF710
:1025F00081FAFFF79DFAFFF7B9FAFFF75DFAFEE7F8
:1026000000000000000000000102030406070809A2
:10261000A0860100400D0300801A060000350C0062
:1026200040420F0080841E0000093D0000127A0025
:102630000024F40000366E010048E801006CDC0262
:1026400000000000010203046826000800000020CA
:1026500010000000BC2500087826000810000020AB
:1026600010090000CC250008010000001000000047
:082670000000000000093D001C
:040000050800018965
:00000001FF
